:020000040800F2
:10000000A004002001010008D31100083D070008EA
:10001000D111000879040008D51400080000000080
:1000200000000000000000000000000005130008B0
:1000300001070008000000004D1200080713000827
:100040001B0100081B0100081B0100081B01000820
:100050001B0100081B0100081B0100081B01000810
:100060001B0100081B0100081B0100087D0400089B
:100070001B0100081B0100081B0100081B010008F0
:100080001B0100081B0100081B0100081B010008E0
:100090001B0100081B0100081B0100081B010008D0
:1000A0001B0100081B0100081B0100081B010008C0
:1000B000FD130008011400081B0100081B010008C3
:1000C0001B0100081B0100081B0100081B010008A0
:1000D0001B010008291400081B0100083514000842
:1000E000050700081B0100081B010008DFF80CD001
:1000F00000F048F90048004761150008A0040020FE
:100100000648804706480047FEE7FEE7FEE7FEE7B1
:10011000FEE7FEE7FEE7FEE7FEE7FEE7B5130008B1
:10012000ED000008D2B201E000F8012B491EFBD21D
:1001300070470022F6E710B513460A4604461946F2
:10014000FFF7F0FF204610BD80EA010210B502F073
:100150000043400022D04A001FD0010E01EB126183
:10016000C0F35600C2F3560240F4000042F400020D
:10017000A0FB022000047F39140400D0401C50EA88
:10018000124001D44000491EC2B20C0604EBD0104C
:10019000401C4008802A02D003E0002010BD20F05F
:1001A0000100002900DA0020184310BD70B521F0CD
:1001B000004303430CD0C1F30A550024D5EB0405DA
:1001C00064EB0403D617AD1AB34102DB00200146ED
:1001D00070BD201841EB025170BD0EB5C10F80EA11
:1001E000E0700844CA07002140F233438DE80E0056
:1001F0000A460B4600F078F803B000BD20F000403E
:10020000C10DC0F3160040F400007F2901DA002080
:100210007047962903DCC1F19601C84070479639B2
:100220008840704701F0004330B421F0004150EAAB
:10023000010206D00A0DA2F56072C1F31301002A73
:1002400002DC30BC00207047440F44EAC104C10006
:10025000E01830BC00EBC250AFF300800029A8BF0B
:100260007047401C490008BF20F00100704710B4DF
:10027000B0FA80FC00FA0CF050EA010404BF10BC94
:10028000704749B1CCF1200421FA04F411FA0CF1C1
:1002900018BF012121430843A3EB0C01CB1D4FEAFA
:1002A00000614FEA102042BF002010BC704700EBF5
:1002B000C35010440029A4BF10BC7047401C490023
:1002C00008BF20F0010010BC704710B5141E73F178
:1002D000000408DA401C41F1000192185B411A4306
:1002E00001D120F0010010BD2DE9F04D92469B4652
:1002F00011B1B1FA81F202E0B0FA80F220329046F8
:1003000000F052F804460F4640EA0A0041EA0B01A9
:1003100053465A46084313D0114653EA010019D0F8
:10032000C8F14002504600F04EF805460E465046D1
:100330005946424600F038F8084305D0012004E051
:1003400020463946BDE8F08D0020054346EAE076B8
:100350002C4337430A986305E40AA0EB0800002207
:10036000FD0A44EA47540A3002D500200146E9E775
:10037000010510196941DDE9084500196941BDE829
:10038000F04DA2E7064C074D06E0E06840F001039F
:1003900094E8070098471034AC42F6D3FFF7AAFE62
:1003A0007C1700089C170008202A04DB203A00FA7A
:1003B00002F1002070479140C2F1200320FA03F3BC
:1003C000194390407047202A04DB203A21FA02F0BA
:1003D0000021704721FA02F3D040C2F1200291407F
:1003E0000843194670470000054900200870054879
:1003F0000168C1F3C0110029FAD02421416070477F
:10040000000000200048004070B5184C0546207CD4
:10041000A070FFF7E9FF00260CE0642001F084F8EB
:10042000A078002803D0617811B16670002070BDFB
:10043000401EA07020780028EFD00D4A0D4826708D
:1004400000211368C3F3C013002BFAD06B5C536018
:100450000368C3F3C013002BFAD06B5C4360491CE4
:10046000C9B20629EDD3012070BD000000000020B4
:100470000048004000380140FEE700000E490868CF
:10048000C0F34000002815D00C4802880C4B1A809D
:1004900042880C4B1A8082880B4B1A80C0880B4A0A
:1004A00010800B4A012010700A4A10700A4A10701E
:1004B0000220486070470000000002401800002041
:1004C000080000200C000020300000200A0000205E
:1004D00003000020040000200500002007E00021A8
:1004E00000BF491C89B20A29FAD3401E80B20028F5
:1004F000F5D1704710B500F0D3F8442000F0DAF8D9
:1005000000F0CEF8BE2000F0D5F800F08DF80446DB
:1005100000F08AF8000200B22043FFF75EFE6FF0A1
:100520000302FFF743FEBDE81040FFF77BBE00006B
:1005300010B586B0684600F0B0FA1048816941F005
:10054000100181618069002100F0100005900120F8
:10055000039142F22001CDE90010094C0490029071
:100560006946204600F00CFA00F018F820202061BF
:1005700000F084F800F02CF806B010BD0010024026
:10058000001001400448016821F4700141F4800129
:1005900001602021016170470010014030B542F236
:1005A000200393FAA3F4B4FA84F4084AA5000F24B4
:1005B000AC4093FAA3F31168B3FA83F301209B00D4
:1005C000A14398400143116030BD0000001001407C
:1005D00070B50024FFF7D6FF0120FFF77FFF114D14
:1005E00004E0641CE4B20120FFF778FFA8688006ED
:1005F00002D5642CF5D310E0642C0ED2002404E064
:10060000641CE4B20120FFF769FFA868800602D4E9
:10061000F02CF5D301E0F02C01D3012070BD0020B7
:1006200070BD0000001001402DE9F0410026124F7E
:1006300035464FF0200800BFFFF7B0FFC7F8148021
:100640000A20FFF74BFFFFF79DFF0120FFF746FF52
:10065000B868800601D5012400E000242D20FFF7B2
:100660003DFFAC4034436D1CEDB2E6B2082DE3D340
:100670003046BDE8F08100000010014070B5FFF782
:100680008DFF064C2025656140F2EE20FFF726FF26
:100690002561BDE870400F20FFF720BF001001402A
:1006A00010B5FFF7EBFFFFF793FFBDE81040CC203C
:1006B000AFF300802DE9F041104D202407462C6156
:1006C000FFF76CFF5FF0000617F0010F4FEA5707C6
:1006D0006C6105D00820FFF701FF2C613A2004E08F
:1006E0005020FFF7FBFE2C610220FFF7F7FE761C7F
:1006F000F6B2082EE8D3BDE8F081000000100140FA
:100700007047000070B54FF48055284600F01CF982
:10071000094C00B125604FF40055284600F014F94B
:1007200000B125604FF48045284600F00DF90028FF
:1007300000D0256070BD000014040140FEE70000F9
:100740000D4B10B59B6801220C4C03F00103A4680B
:1007500004F00104234302D00022104610BD0968B2
:1007600029B1436823F470230B434360F5E74168E4
:1007700021F470214160F0E700240140002801408D
:1007800010B58368012213F0010F02D00022104639
:1007900010BD43684C6823F480732343436083682F
:1007A000096823F400630B438360F0E770B54B687E
:1007B0008468012214F0010F02D00022104670BD9F
:1007C00033B18C682343446824F46844234302E033
:1007D000436823F468434360CC680B68856823430F
:1007E0000C69064E35402C43234383604968C36A35
:1007F00023F470030B43C362E0E70000FDFEF1FF4A
:1008000010B54FF4407401F4407394FAA4F4B4FAB0
:1008100084F4E34000EB830001F01F011F248C40AF
:10082000C36A02F01F02A3438A401343C36210BD90
:1008300070B54FF0007401F0007394FAA4F4B4FAA8
:1008400084F4E3404FF0F87494FAA4F501F0F871E1
:10085000B5FA85F500EB830021FA05F50726AE40D1
:1008600094FAA4F4C368B4FA84F4E140B3438A4030
:100870001343C36070BD0000044908B5CA69024350
:10088000CA61C9690140009108BD00000010024022
:10089000044908B58A6902438A6189690140009167
:1008A00008BD00000010024030B5264A0124057939
:1008B0000168131F85B371B345798DB1012D17D030
:1008C000022D18D0002483792BB31E4908310A1F4A
:1008D000012B18D0022B20D0032B22D0002428E09B
:1008E00015688D43156001681A680A431A60EAE7C3
:1008F0001D688D4301E01D680D431D60016813688C
:100900000B431360DFE703680D689D430D600068CB
:100910001168014311600CE00DE0036815689D4308
:1009200002E0036815681D43156000680A68024309
:100930000A60204630BD1D688D431D600068116847
:100940008143E7E70404014003490968884301D073
:100950000020704701207047140401400A06930DDF
:10096000064A1A44936823EA1143090C91FAA1F14B
:10097000B1FA81F188400343936070470000014061
:10098000F0B50A68C2F30F2595FAA5F2B2FA82F320
:1009900069E001229A402A4264D0082B03D240F237
:1009A00001129A4006E0A3F108024FF001149440AE
:1009B00044F0806292FAA2F700EB1264B7FA87F76C
:1009C0004FEA870C0F27266807FA0CF7BE4392FA06
:1009D000A2F7D1F804E0B7FA87F7BF000EFA07FED6
:1009E00046EA0E0626600E69C7684FEA122C9CFA8A
:1009F000ACFCBCFA8CFC27EA122706FA0CF637434B
:100A0000C7604E68012E01D0092E2BD192FAA2F7B1
:100A1000B7FA87F74FEA870C032707FA0CF726681F
:100A2000D1F808E0BE4392FAA2F7B7FA87F7BF0001
:100A30000EFA07FE92FAA2FC46EA0E06BCFA8CFCFD
:100A40004FEA8C0E4FF0040C26600CFA0EFC92FA62
:100A5000A2F2B2FA82F2CF68920026EA0C06974020
:100A60003E4326605B1C35FA03F292D10120F0BDB3
:100A700030B591FAA1F400EB1160B4FA84F4A5004A
:100A80000F24AC4091FAA1F10368B1FA81F1890019
:100A9000A3438A401343036030BD6FF07B41016084
:100AA00004210222C0E90112C160002101617047E6
:100AB0004FF47A71B0FBF1F14FF0E020491E416133
:100AC0000021816105210161704700B5034600F0F6
:100AD000E9FB186000F0BCFB586000F0C7FB9860B1
:100AE000586800F0D1FBD86000BD000001490860E3
:100AF0007047000034000020F0B50268154B164C1A
:100B0000164D4FF08046984205D0B04203D0A04227
:100B100001D0A84203D14F6822F070023A439842B4
:100B200005D0B04203D0A04201D0A84203D1CC6886
:100B300022F44072224302608A68C2620A8882629A
:100B4000984201D1097C0163416941F00101416191
:100B50000120F0BD002C01400004004000080040CE
:100B60002DE9FF410446C0680D460026C0F3403021
:100B7000F0BBE9686868E2680843296941F20C63E0
:100B80009A4311430843E060A868216921F4405169
:100B9000014321616869616921F440710143616128
:100BA0006846FFF792FF2448844201D1039806E08B
:100BB0002248844202D02248844238D10298B8B1F7
:100BC0002A68AAB100EBC00101EB00119200B1FB51
:100BD000F2F36420B3FBF0F3B1FBF2F56FF018070A
:100BE0007B43012605EB8305322303EB051500E06B
:100BF0001DE0B1FBF2F7B5FBF0F5B7FBF0F705F040
:100C0000F00505EB0715B1FBF2F7B1FBF2F1B1FB13
:100C1000F0F16FF01802514307EB810103EB011172
:100C2000B1FBF0F000F00F00284480B2A06004B0E7
:100C30003046BDE8F081000000380140004400402B
:100C400000480040F0B58FB0002400940B940C9441
:100C5000142101A80D94FFF76CFA142106A8FFF7E0
:100C600068FA4FF400763046FFF712FE1020FFF7C7
:100C70000FFE40F60F70CDE9060406A945480A9418
:100C8000FFF77EFE454A4449104612788A5844F2DE
:100C900010039A430378CA5002788A58037822F4E2
:100CA000405242F40052CA5002788A58037842F007
:100CB0002002CA5002788A58037822F04002CA50B3
:100CC00002788A58037842F08002CA5002788D1563
:100CD0008A58037822F4407242F48072CA50027833
:100CE0008A58007822F4406242F480620A502C4F05
:100CF0000BA93846CDE90B45FFF742FD0DA9384653
:100D00000D94FFF71DFDE80201904FF44010CDE96E
:100D1000020401A93846CDE90445FFF747FD0A2240
:100D200040F20F213846FFF76BFD00220A213846BA
:100D3000FFF77EFD1B4C40F20A2122463846FFF7A2
:100D40005FFD002221463846FFF772FD164C314602
:100D500022463846FFF754FD002221463846FFF769
:100D600067FD124C711D22463846FFF749FD0022EF
:100D700021463846FFF75CFDB86840F00100B860D6
:100D8000B86840F4A000B860B86840F00400B860EB
:100D90000FB0F0BD00100140000002405C170008D9
:100DA000002401400B0030000C0060000D0090009A
:100DB00038B52148416941F001014161406900F0C5
:100DC0000100009000F02AFA0022114600F00DFA0E
:100DD00001460B2000F02AFA0B2000F0FBF9184A1C
:100DE00016491046127842F2A0538A5847F6F0741A
:100DF000A2431A430378CA50104D04780835114BAA
:100E0000114A635104782B1DE25003780A1D9B5848
:100E100004786FF30F0343F00403A35002788A5859
:100E2000037842F00202CA5002788A58007842F0F1
:100E300001020A5038BD00000010024000000240CC
:100E40005C1700084C2401401800002070B588B0E1
:100E5000142102A8FFF76DF90025009520200195C7
:100E6000FFF716FD1020FFF713FD0820FFF710FD18
:100E70000420FFF70DFD2D4E072140F20770716130
:100E80000124CDE902040220CDE9040502A930467F
:100E9000FFF776FD26490120FFF760FD2549012077
:100EA000FFF75CFD24490120FFF758FD20038DF872
:100EB000044000908DF805508DF806406846FFF715
:100EC000F3FC60038DF8044000908DF805508DF818
:100ED00006406846FFF7E8FCA0038DF80440009048
:100EE0008DF805508DF806406846FFF7DDFC0422BA
:100EF00012493046FFF7BCFD042211493046FFF786
:100F0000B7FD04220F493046FFF7B2FD00F086F925
:100F10000022114600F069F90146282000F086F908
:100F2000282000F057F908B070BD0000000C014007
:100F300003000F000300F0000300000F1000100476
:100F4000200020044000400410B586B014216846FB
:100F5000FFF7EFF80120FFF78FFC00F05FF90022A8
:100F6000114600F042F901461C2000F05FF91C20F8
:100F700000F030F94CF25030ADF800000020019044
:100F800002904FF08044039069462046FFF7B4FD7D
:100F9000206820F080002060A06844F207018843A8
:100FA000A060606820F070006060A06820F08000A1
:100FB000A06006B010BD000010B586B014216846D0
:100FC000FFF7B7F80220FFF757FC00F027F90022DF
:100FD000114600F00AF901461D2000F027F91D20F6
:100FE00000F0F8F842F20F70ADF800000020019018
:100FF00041F61F4002904FF40070134C0390694675
:101000002046FFF779FD206820F080002060A0686E
:1010100044F207018843A060606820F0700040F04F
:1010200020006060A06820F08000A060606940F04F
:1010300040006061206840F001002060E06840F0FE
:101040000100E06006B010BD0004004030B58BB078
:10105000182105A8FFF76DF814216846FFF769F815
:101060004FF48040FFF714FC0420FFF711FC2148E7
:1010700000900920019003200024CDE902041E4DB8
:1010800069462846FFF77CFC1C480090042001902C
:1010900069462846FFF774FC00F0C0F800221146AC
:1010A00000F0A3F80146252000F0C0F8252000F04C
:1010B00091F84FF4E130CDE905040C20CDE908406A
:1010C00007940A940E4C05A92046FFF749FD2069B4
:1010D00020F490402061606920F02A006061E0689F
:1010E00040F40050E060E06840F02000E0600BB0A9
:1010F00030BD0000020002040008014004000404A6
:101100000038014030B58BB0182105A8FFF711F861
:1011100014216846FFF70DF84FF48020FFF7ACFB71
:101120001020FFF7B5FB254800900920019003200F
:101130000024CDE90204224D69462846FFF720FC31
:10114000204800900420019069462846FFF718FCCB
:101150001D48416821F030014160416841F01001B3
:10116000416000F05BF80022114600F03EF80146B5
:10117000272000F05BF8272000F02CF84FF4E13036
:10118000CDE905040C20CDE9084007940A940F4CE2
:1011900005A92046FFF7E4FC206920F49040206177
:1011A000606920F02A006061E06840F40050E0606F
:1011B000E06840F02000E0600BB030BD04000404A3
:1011C00000100140080008040000014000480040F1
:1011D000FEE7704700F01F020121914040098000A6
:1011E00000F1E020C0F80011704730B500F00703AF
:1011F000C3F10704042C00D90424181D072801D2C8
:10120000002300E0DB1E012505FA04F0401E084023
:1012100098409D406D1E1540284330BD024800682F
:10122000C0F30220704700000CED00E00907090E32
:10123000002806DA00F00F0000F1E02080F8141D0D
:10124000704700F1E02080F80014704770470000FC
:1012500004494968044A01F0F0010909515CC84099
:1012600070470000001002406317000804494968F5
:10127000044A01F4E06102EB11210978C84070478B
:10128000001002407317000804494968044A01F439
:10129000605102EBD1210978C8407047001002402C
:1012A000731700080648406810F00C01054805D087
:1012B000042903D0082901D100F006B870470000C6
:1012C0000010024000127A000B48416811F480328D
:1012D0000A4909D0B2F5803F06D14168084AC1F3F6
:1012E0004041491CB2FBF1F14068022200F4701049
:1012F00002EB9040484370470010024000093D0057
:1013000000127A007047704770B52748016821F0D5
:10131000070141F0020101600068244C206840F49C
:10132000803020602068C0F340400028FAD0606818
:1013300020F47C1040F4E8106060206840F0807079
:1013400020602068C0F340600028FAD0606820F078
:10135000F0006060606820F4E06040F480606060ED
:10136000606820F460506060606820F0030040F026
:1013700002006060606800F00C000828FAD10C4D93
:101380002846FFF795FB4FF0E021086940F0040084
:1013900008612846FFF7AAFB606820F4404040F44B
:1013A0000040606070BD000000200240001002405C
:1013B00000A24A040D48016841F001010160416842
:1013C0000B4A1140416001680A4A114001600168FE
:1013D00021F480210160416821F4FE0141604FF455
:1013E0001F0181600449C00308607047001002407B
:1013F0000000FFF8FFFFF6FE08ED00E07047000078
:101400000748016911F0010F08D06FF00101016177
:101410000448016840F20112514001607047000029
:10142000000400400C0C01400148006870470000B7
:101430000048004030B521480168C1F3401100293F
:101440001FD042681F481E494388CA541E4A136869
:1014500040F20664634013604288012400238D5CDF
:10146000FF22402D0ED045884D5D212D18D041889A
:10147000491C418041886422B1FBF2F302FB131145
:10148000418030BD114D2C70438004E044880A55E2
:101490004488641C44804488642CF7D3438030BD66
:1014A0000B4D2C70438004E044880A554488641C2A
:1014B00044804488642CF7D3F0E7000000480040E3
:1014C0003C000020300000200C0C014000000020F7
:1014D00001000020FEE70000014A024900F013B8B5
:1014E000491500083800002002E008C8121F08C192
:1014F000002AFAD170477047002001E001C1121F95
:10150000002AFBD170472DE9F04116460F460446EC
:10151000002503E03946B047641C6D1C2078002884
:10152000F8D12846BDE8F08100214FF4E15307E0EF
:1015300000BF00BF022200BF521C9A42FBD3491CCD
:101540008142F5D37047000004490A68C2F3C01213
:10155000002AFAD0C2B24A60704700000038014049
:10156000684888B0416821F0E0614160416841F01D
:10157000007141600120FFF78BF94FF08050FFF7B9
:101580007BF9614908684FF6FF0210405F4A40F45A
:10159000407010430860FFF7B7FEFFF757FCFFF7F6
:1015A00055FDFFF7AFFDFFF7CFFCFFF705FDFFF798
:1015B00049FBFFF7FDFBFEF7BBFF55A0FFF78CFFD4
:1015C00058A1D1E900010090019158A0D0E9001084
:1015D0000291039057A1D1E900010490059157A011
:1015E000D0E90010069107901020FFF751F955A09F
:1015F000FFF772FF584D574F002605F1200472B6D1
:10160000FEF778FF39466861FEF79EFDFEF7F6FDAE
:10161000E880E88800F00F00205C8DF81C00E88866
:10162000C0F30310205C8DF81B00E888C0F3032092
:10163000205C8DF81A00E88804EB103000788DF8F3
:10164000190062B606A8FEF7DFFEE878D8B1EE70A2
:10165000288900F00F00205C8DF80C002889C0F369
:101660000310205C8DF80B002889C0F30320205C58
:101670008DF80A00288904EB103000788DF80900F5
:1016800002A8FEF7C1FE2879D8B12E71688900F052
:101690000F00205C8DF814006889C0F30310205CF3
:1016A0008DF813006889C0F30320205C8DF81200C8
:1016B000688904EB103000788DF8110004A8FEF75B
:1016C000A3FE687900289AD06E71A88900F00F00F7
:1016D000205C8DF80400A889C0F30310205C8DF80D
:1016E0000300A889C0F30320205C8DF80200A889BC
:1016F00004EB103000788DF801006846FEF784FE98
:101700007DE70000000001400CED00E00000FA055C
:101710000D0A0C48656C6C6F20576F726C64313227
:10172000330D0A004C4C4C4C4C4C00004D4D4D4D73
:101730004D4D00004E4E4E4E4E4E000054545454EB
:101740005454000068656C6C6F20776F726C640D88
:101750000A0000000000204100000020081C304466
:10176000586C800000000000000000010203040625
:101770000708090000000001020304009C1700088C
:10178000000000203C000000E8140008D817000802
:101790003C00002064040000F81400080000000071
:1017A0000000000000000000000000000300000036
:1017B0000000000000000000000000003031323363
:1017C000343536373839414243444546000000003D
:0817D00000A24A040000000021
:04000005080000ED02
:00000001FF
