:020000040800F2
:1000000010090020D5000008952C0008012C0008DC
:1000100000000000000000000000000000000000E0
:100020000000000000000000000000008F2F00080A
:1000300000000000000000006D2D0008AD45000824
:10004000E7000008E70000083F2E0008E70000086E
:10005000E7000008B9080008C9080008D908000826
:10006000E7000008E7000008E7000008E7000008D4
:10007000E7000008E7000008E7000008E7000008C4
:10008000E7000008E7000008E700000800000000A3
:10009000E7000008E7000008E7000008E7000008A4
:1000A000E7000008E7000008E7000008E700000894
:1000B000174C0008E700000800000000E7000008F7
:1000C0000348854600F080FB00480047F5560008CD
:1000D000100900200448804704480047FEE7FEE777
:1000E000FEE7FEE7FEE7FEE741460008C100000824
:1000F00030B50B46014600202022012409E00D46C0
:10010000D5409D4205D31D469540491B2546954047
:1001100040191546521E002DF1DC30BDF0B51FB45C
:100120000646002082B005464024019100901BE065
:10013000019922460F46304600F050FA049A059B7A
:10014000801A994110D310461946224600F036FA1B
:10015000361A8F410197224601200021009F00F0AE
:100160002DFA38184D4100902046641E0028DFDC2F
:10017000019B00982946324607B0F0BD03460B4369
:100180009B0703D009E008C9121F08C0042AFAD24D
:1001900003E00B780370401C491C521EF9D27047D3
:1001A000D2B201E00270401C491EFBD2704700220F
:1001B000F6E710B513460A4604461946FFF7F0FF66
:1001C000204610BDF0B507460846584087B0C00F1E
:1001D000049048000E46590040084908BC1A88415E
:1001E00005D2384631461E4617460B460246580091
:1001F000400810434CD0300D039040055900400D8D
:10020000490D0590401A0290402872DA1803012126
:10021000000B09050843019004980092002805D0BE
:100220000199524200208841009201900298402199
:100230000A1A0199009800F0C1F905460C466B4670
:1002400007CB00F0DCF9C0197141039A0E0D0023B1
:10025000D71756401A467A40164344D0049A002ACB
:100260002DD0029A012A039A15DC1205C01A914179
:1002700001263605001C7141D20F059ED20700935E
:10028000019202962A46234600F0D9F907B0F0BD44
:1002900038463146FAE71605224A0F46B218C01A08
:1002A000B74101210905001C4F4100187F4111464B
:1002B00018187941E20F10436D19644113E0E20709
:1002C0006D0815436408C2071443039A01261205FA
:1002D000C01A91413605001C7141CE0740083043D9
:1002E0004908C01851412A46234600F09BF9CDE742
:1002F000FFE7049801224000C117121A00238B4126
:1003000004983146C417381AA141EEE730B40124ED
:10031000E407634030BC55E730B40124E407614092
:1003200030BC4FE70000E0FFF0B51FB488B00B9978
:100330000998002448400999C00F490049080991CB
:10034000C0070B990090490049080B91099908983A
:10035000A64608431CD00B990A98084318D0099860
:1003600001244000420D4800410D09982405000376
:10037000000B204309900B980003000B20430B90C7
:1003800050181C494018002201901446104605E000
:10039000002001460DB0F0BD032801DA034600E05D
:1003A00003239C46C11A0AAE0AE05F0008ADED5B6C
:1003B0004F00F75B7D430027AA187C41491C5B1E58
:1003C0006145F2DD410004AB5A522104120C0A438C
:1003D000240C401C0828DFDB01980290009970462D
:1003E00001910090059B049A0799069800F027F95F
:1003F000D0E700000DFCFFFFF0B50C465C4085B077
:10040000E40FE40703944C00002664085900944666
:10041000490802460296224321D062460A431ED072
:100420006200570D4A000E032303550D01240246B6
:100430002C492405781B1B0B360B401823432643FD
:10044000614600901C46501AB44103D30098401CEA
:10045000009002E0921800985B41002803DA002027
:10046000014605B0F0BD002001210905074686467A
:1004700011E064461D46141BB54106D36546521B68
:10048000B341744607430C43A646CD0740084908CC
:10049000284392185B4105460D43EAD110461843A4
:1004A00013D06046194650407140084306D060465C
:1004B000101AB34106D20122002306E000220123D4
:1004C000DB0702E00122D243531000987446010575
:1004D000381C6141029C039D0019694100F0A2F89B
:1004E000BFE70000FD03000070B54B005B0803434D
:1004F0000BD04B005C0D002633466542B341D41748
:10050000AD1AA34102DB0020014670BD1205301870
:10051000514170BD0EB5C217C10F5040CA074018F7
:100520000021054B0293019200910A460B4600F010
:1005300086F803B000BD0000330400000EB5054985
:100540000291002100910A460B46019100F077F8D4
:1005500003B000BD330400004A0009030123090B66
:100560001B051943094B10B5520D9A4201DA0020C0
:1005700010BD064B34339A4203DC9A1A00F02EF871
:1005800010BD03495118884010BD0000FF03000052
:10059000CDFBFFFF10B5002904DB0124E407404236
:1005A0008C412146002B04DB1C460123DB07524211
:1005B000A341994200D1904210BD000010B5202AFD
:1005C00004DB0146203A9140002010BD91402023D9
:1005D0009C1A0346E3401943904010BD10B5202AF1
:1005E00004DB0846203AD040002110BD0B46D34022
:1005F000D0402024A21A91400843194610BD10B5DE
:10060000202A06DBCB170846203A1041C1170B43BE
:1006100006E00B461341D0402024A21A9140084323
:10062000194610BD10B5002B08DA0024401C6141AA
:1006300092185B411A4301D14008400010BDF0B54B
:100640001FB482B005460C0003D0084604F0FAFA45
:1006500002E004F0F7FA20300246009021462846D6
:10066000FFF7ACFF049B059A04460F46184311435D
:10067000084314D0184610431BD0009840210A1A92
:1006800018460599FFF7AAFF05460E46009A0599F8
:100690000498FFF793FF084305D0012004E02046AB
:1006A000394607B0F0BD0020C11705430E432C4367
:1006B000374300990E986305401A7905E40A002231
:1006C0000C43FD0A0A3002D500200146E9E7010586
:1006D000101969410C9C0D9D00196941FFF7A2FF9B
:1006E000DFE70000F8B50546480040080C462843FF
:1006F00004D06000184A400D904201DD2846F8BD44
:1007000015493539884210DC88420BDB290D20035E
:1007100008432903014305D0E00F1049C0074118E1
:100720000020F8BD00200146F8BD161A4020821BAB
:1007300028462146FFF742FF0746009128462146FA
:100740003246FFF74BFF3A46009BFFF76BFF3246FE
:10075000FFF734FFF8BD0000330400000000F03F55
:100760004A0009030123090B1B0519430A4B10B565
:10077000520D9A4202DA0020014610BD064B343376
:100780009A4203DC9A1AFFF729FF10BD034BD218D7
:10079000FFF714FF10BD0000FF030000CDFBFFFFBB
:1007A00010B5002904DB0124E40740428C412146B6
:1007B000002B04DB1C460123DB075242A3418B4282
:1007C00000D1824210BD0000064C0125064E05E016
:1007D000E36807CC2B430C3C98471034B442F7D362
:1007E000FFF772FC145C0008345C000810B50222AC
:1007F0001449012386B000281ED0012804D0022805
:100800001AD0032807D117E0CA6A1A43CA62C96A14
:10081000C907C90F059141000B4A8000515A009148
:100820000021029103210391084901930858694668
:1008300000F0A4F906B010BDCC6A1443CC62C96ABA
:100840001140E7E700100240D05B000824000020C0
:1008500010B5044A4100515A034A8000105800F074
:100860004FFA10BDD05B00082400002030B585B0E1
:1008700003200190002002900320400300900520F7
:100880006946000700F07AF9084C606B0125AD0558
:100890002843606300F04AF900F058F900F04EF97F
:1008A000606BA843606305B030BD000000100240DB
:1008B00010B501F0EBFE10BD10B5012000F052F9AB
:1008C000022000F04FF910BD10B5042000F04AF9E5
:1008D000082000F047F910BD10B5102000F042F9D3
:1008E000202000F03FF9402000F03CF9802000F08B
:1008F00039F9FF20013000F035F90120400200F005
:1009000031F90120800200F02DF90120C00200F031
:1009100029F90120000300F025F90120400300F02F
:1009200021F90120800300F01DF90120C00300F02F
:1009300019F910BDFEE7000010B5094A0021CB00EF
:10094000D458844207D89B189B68834203D9C800B7
:100950008018007910BD491CC9B21529EFD3FEE7F4
:100960001C5B000870B5040006D0A06D264600256B
:100970004036002802D006E0012070BDE5653575DF
:10098000204600F0D1F8A06DC00603D42168886825
:10099000400705D5A06D10210843A0653575EBE72C
:1009A000A06DFF220132904302221043A0658868A7
:1009B0008207920F5A48012A02D10A68D2072BD126
:1009C000032362689B079A4205D05B429A4202D099
:1009D0005B009A4209D10A69920092080A61216873
:1009E0000A6963681A430A610CE00A699200920876
:1009F0000A6181680F229204914381608168626874
:100A0000114381602168CA6818239A43CA6021682B
:100A1000CA68A3681A43CA608168012252069143DA
:100A200081608168228F520611438160206881684D
:100A3000C90004D481680122120711438160206833
:100A4000C168384A1140C1602169E068022923D099
:100A500000210843216A226B4903520011430843D5
:100A6000616B0843A16989030843E169C90308432D
:100A70002168CA681043C860A06A0146FF39C239BC
:100A800005D0E16A08432168CA681043C860606AFB
:100A90000121012802D00BE00421DAE7206A0028B6
:100AA00023D0A06D20221043A065E06D0843E065CF
:100AB000206C012820681FD00169C90703D0016993
:100AC00049084900016120684169C908C9004161BC
:100AD00020684169E26B11434161E565A06D8008C2
:100AE0008000401CA065002070BD2068C268012302
:100AF0001B041A43C260DBE70269FF239B009A4391
:100B0000026120680269636CE66C1A43A36C33438C
:100B10001A430261206802690A430261D3E70000B8
:100B2000002701401902FEFF70470000024841689B
:100B30004908490041607047005801400248416837
:100B400004229143416070470058014002484168C7
:100B500002229143416070470058014010B501F0F6
:100B600045FD10BD10B504494A69024202D04861F2
:100B7000FFF7F4FF10BD000000040140F8B50023AA
:100B80000124A7E027469F403A4070D04D68022DCF
:100B900001D0122D14D1DD08AD002D1800952D6A5D
:100BA0005E07AC46F50E0F26AE46AE406546B54331
:100BB000AC460E697546AE4065462E43009D2E62DA
:100BC0004D68012D05D0022D03D0112D01D0122D1D
:100BD00016D185680326AC465D00AE46AE4065463C
:100BE000B543AC46CE687546AE4065462E4386603A
:100BF00046680D79BE43ED06ED0F9D4035434560D7
:100C000006685F000325BD40AE46AE430D79B4468D
:100C1000AE07B60FBE4065462E430660C6687546F1
:100C2000AE438D68BD403543C5604D68ED0050D57D
:100C30002B4D6E6B26436E639E082A4DB6007519C8
:100C4000AC46AD689E07360F0F27B740BD4305275A
:100C50003F07B84201D100271AE0234FB84201D123
:100C6000012715E0214FB84202D1022710E030E001
:100C70001F4FB84201D103270AE01E4FB84201D1ED
:100C8000042705E01C4FB84201D1052700E00627E4
:100C9000B7402F436546AF60184D2E684F689643A6
:100CA000FF0300D516432E606E684F689643BF035E
:100CB00000D516436E60AE684F689643FF0200D5BC
:100CC0001643AE60EE684F689643BF0200D51643E8
:100CD000EE605B1C0A681546DD4000D052E7F8BDA7
:100CE00000100240000001400004005000080050C5
:100CF000000C005000100050001C00500004014087
:100D000042694A4042617047002A01D081617047C0
:100D10008162704701480068704700003800002079
:100D200002480168491C016070470000380000203B
:100D300010B506480168022211430160032000F04B
:100D400007F800F007F8002010BD00000020024066
:100D50000020704710B500F04DF800F043F804484B
:100D6000016808221143016000F034F810BD000052
:100D700000200240C106C90E0120884001490860D8
:100D80007047000080E200E0C106C90E01208840E3
:100D9000014908607047000000E100E0054909686A
:100DA000C206D20E01209040014201D001207047BE
:100DB0000020704700E200E0C106C90E0120884013
:100DC000014908607047000000E200E010B501F042
:100DD00063FF10BD024801680215114301607047AE
:100DE00000700040024801684215114301607047DD
:100DF0000070004002480168102291430160704772
:100E000000700040094B1A689208920002431A6071
:100E10000748026904239A430261012903D040BFB5
:100E200020BF20BF704730BF7047000000700040F7
:100E300000ED00E00A4B1A689208920002431A6023
:100E400008480369042213430361012906D040BF07
:100E500020BF20BF016991430161704730BFF9E7AE
:100E60000070004000ED00E0F8B566490746012536
:100E70000020ED03624B634A4031102F6FD011DC2C
:100E8000012F77D0022F6CD0042F6BD0082F24D1E4
:100E9000C9680324240321407BD0BD026C10A94201
:100EA0007CD0A0E00326584C3604202F0BD0402FD6
:100EB00035D0FF3F012F10D1C968314069D07C0483
:100EC000A1426BD096E00B690969012731403F04CC
:100ED000B94203D1990559E02846F8BD01256D04B2
:100EE000A94203D19907F8D54848F8BDB142FCD1D1
:100EF00011688903F9D5116803200005014001201C
:100F00000005091A09D0091A05D0814201D14048CB
:100F1000F8BD2046F8BD3F48F8BD3F48F8BDC96858
:100F20000125AD06294006D0A942F7D1916889076D
:100F3000F4D53A48F8BD11688901FBD5D068D1686D
:100F40008002374D000F2D5C0802810FD068491CCC
:100F5000C0030AD41068C00605D5204606E045E067
:100F600008E023E030E0184600E02E486843FFF731
:100F7000BFF8F8BDCC68A407A40F0CD0022C0DD08C
:100F8000012C10D0032CF4D1096989050029A3DBB9
:100F9000F8BD16E002E000F0D1F9F9E71168490761
:100FA000F6D51846F4E700F0D9F9F1E7CC680C263D
:100FB000344006D0082CF1D0042CF4D00C2CE3D013
:100FC000E6E700F0ABF9E3E7CC680326B60234406D
:100FD000F7D00127FF02BC42E0D07A109442E2D061
:100FE000B442D1D0D4E7A142DDD0D1E7916B490220
:100FF000E7D4CDE7012212049142D4D0C8E7000023
:101000000024F4000010024000093D008890000018
:1010100020A1070040420F0080841E00006CDC020B
:10102000E85B000800127A00F8B5044600785E4DCF
:10103000800672D55C4E0027403EB06BC00004D4E1
:10104000B06BA9050843B063012758480168C9057A
:1010500011D40168821511430160FFF75BFE009017
:1010600005E0FFF757FE0099401A642837D84F482B
:101070000068C005F5D532680321090560680A409B
:101080000140914208D08103890F032904D13168BE
:10109000890301D50120F8BD2A69032109040A400A
:1010A00022D0084090421FD0207880061CD52869A5
:1010B0002A6988430121C9040A432A612A698A43AB
:1010C0002A612861C0050FD5FFF724FE009008E0D3
:1010D000FFF720FE0099411A3548814201D90320CB
:1010E000F8BD28698005F3D561688803800F03285F
:1010F00005D132680005824301400A433260286905
:10110000032261681204114008432861002F04D0B3
:10111000B06B012109078843B0632078C00705D070
:10112000E868A168800880000843E86020788007AC
:1011300005D5E8680C218843E1680843E860207819
:10114000400706D5E86803218902884321690843DE
:10115000E8602078000706D5E86803210903884382
:1011600061690843E8602088C00506D5E868032166
:1011700009048843A1690843E8602078400606D541
:10118000E868012189068843216A0843E8602078DD
:10119000000606D5E868032189048843E16908430D
:1011A000E8600020F8BD00004010024000700040E0
:1011B00088130000F8B5054653480E460068C0077E
:1011C000C00FB0420AD25048016849084900314373
:1011D00001600068C007C00FB0426FD128784B4C47
:1011E000800705D5E068F0218843A9680843E060DE
:1011F0002878C00752D06868022817D0032818D072
:101200002168012818D08905002957DAE168890882
:1012100089000143E160FFF77DFD69680746022907
:1012200012D003291CD0012926D033E0216889037C
:10123000EAE721688901E7E74907E5E7FFF76AFD83
:10124000C11B3348814223D8E0680007800F022881
:10125000F4D123E0FFF75EFDC11B2D48814217D872
:10126000E0680007800F0328F4D117E0FFF752FD74
:10127000C11B274881420BD8E0680007800F012876
:10128000F4D10BE0FFF746FDC11B2148814201D993
:101290000320F8BDE0680007800FF3D11A48016809
:1012A000C907C90FB1420BD9016849084900314348
:1012B00001600068C007C00FB04201D00120F8BD36
:1012C0002878400706D5E068072109028843E968C5
:1012D0000843E0602878000707D5E0680721C902C5
:1012E00088432969C9000843E06000F037F8E168E5
:1012F000084A0906090F515CC840074908600320E5
:10130000FFF726FD0020F8BD00200240001002403B
:1013100088130000D85B0008340000200448054909
:101320000068C968044A4905490F515CC8407047C4
:101330003400002000100240F15B00080448054919
:101340000068C968044A8904490F515CC840704765
:101350003400002000100240F15B000810B5184A6C
:10136000D1680C20084004280BD0082810D00C2885
:1013700010D050680004410F0120C003491C884070
:1013800010BD1068C00601D50E4810BD0E4810BD36
:101390000E4810BD88020E4B000F185C0902D3687E
:1013A000890F491CDB0301D5084A05E01268D20603
:1013B00001D5044A00E0044A5043FEF799FE10BDEF
:1013C0000010024000093D000024F40000127A00E1
:1013D000E85B0008F8B504460078FF4DC0074CD024
:1013E000E8680007800F022807D0E8680007800F30
:1013F000032809D1E868C00306D5286880033CD5D6
:101400006068002875D038E00120626800048242DC
:1014100003D129680143296011E0052301211B0440
:1014200089049A422A6802D10A432A60F1E782437A
:101430002A602A6802400092286888432860606811
:1014400000280DD0FFF766FC0646E44F04E0FFF7E6
:1014500061FC801BB8427DD828688003F7D50CE07A
:10146000FFF758FC0646DD4F04E0FFF753FC801BF6
:10147000B842F0D828688003F7D42078800741D597
:10148000E8681F270007800F3F02012807D0E8689F
:101490000007800F032809D1E868C00306D4286834
:1014A000400717D5E068012823D113E0E068002841
:1014B00017D029680922914301432960FFF72AFCCC
:1014C000064604E0FFF726FC801B0228C3D82868E4
:1014D0004007F7D568682169B84309020843686086
:1014E00010E02868400840002860FFF713FC06461B
:1014F00005E090E0FFF70EFC801B0228ABD82868BF
:101500004007F7D42078C00676D5E868B44E0007C7
:10151000800F0BD0E06900285DD02868FF210131E1
:1015200008432860FFF7F6FB074644E0286880057B
:1015300002D5E06900286ED0606A6968314088424F
:1015400012D901F015FC0028AED16868616AB04379
:10155000084300E0E4E068606868218C0002000A4B
:101560000906084368600FE06968B1430143696098
:101570006868218C0002000A090608436860606AF6
:1015800001F0F6FB00288FD1606A410B0120C003F7
:10159000491C8840E968934A0906090F515CC84014
:1015A000914908600320FFF7D3FB25E0FFF7B2FB6A
:1015B000C01B02288AD828688005F7D56868616A48
:1015C000B043084368606868218C0002000A09067D
:1015D0000843686010E02968FF20013081432960DA
:1015E000FFF798FB064604E0FFF794FB801B0228F8
:1015F00084D828688005F7D420787C4E000723D54E
:1016000060690028306910D0012108433061FFF77C
:1016100081FB074605E009E1FFF77CFBC01B0228C0
:101620007ED830698007F7D50EE040084000306171
:10163000FFF770FB074604E0FFF76CFBC01B0228B6
:101640006ED830698007F7D42078400761D5A86B41
:101650000027C00005D4A86B012109070843A8632F
:10166000012763480168C90511D401688215114337
:101670000160FFF74FFB009005E0FFF74BFB00997F
:10168000401A64284CD85A480068C005F5D5FF2098
:10169000A2680130824203D131690143316111E016
:1016A00001218902002A07D005231B029A4203D197
:1016B00032690A433261EFE732698243326130694D
:1016C00088433061A06800280ED0FFF723FB00900C
:1016D00006E0FFF71FFB0099411A404881421FD8DE
:1016E00030698005F5D50DE0FFF714FB009006E0AA
:1016F000FFF710FB0099411A3848814210D8306931
:101700008005F5D4002F04D0A96B01200007814388
:10171000A9632078800630D53649A0694A1400E0D4
:101720007DE0002816D0AB6801200343AB606B6BF3
:1017300003436B63086A10430862FFF7EBFA06463F
:1017400004E0FFF7E7FA801B022868D8A868800742
:10175000F7D512E0A86840084000A860086A9043E6
:101760000862FFF7D7FA064604E0FFF7D3FA801BBA
:10177000022854D8A8688007F7D4A06A002853D05C
:10178000E9680907890F032950D001263606022887
:10179000286805D0B0432860FFF7BCFA044640E053
:1017A000B0432860FFF7B6FA074604E0FFF7B2FA45
:1017B000C01B022833D828688001F7D4216BE06A67
:1017C000EA680843616BFD231B049A4311430843F5
:1017D000E860286830430FE00010024088130000E2
:1017E00000E00000D85B00083400002040100240F8
:1017F00000700040000001402860FFF78BFA0446AB
:1018000004E0FFF787FA001B022808D82868800147
:10181000F7D509E0FFF77EFA001B022801D9032063
:10182000F8BD28688001F5D40020F8BD0120F8BD7E
:10183000704730B5014620310A78012A15D00122BF
:101840000A7002234B700468CA236362046853233E
:10185000636203689C6820252C439C600068FF231A
:1018600043624A700020087030BD022030BD10B5C0
:1018700002F026FF10BD000070B5044600688168C4
:101880008025C90400290BDAC068C00508D52046A8
:10189000FFF7EDFF2168C8682840FF388238C8602C
:1018A0002068816889040BD5C068800508D520466A
:1018B000FFF7BEFF2068C168054A29408918C1604A
:1018C000012004494004486101202034607070BD4B
:1018D0007FFDFFFF00040140F8B5054604462035B2
:1018E000287801281DD00120287002206870226805
:1018F000CA205062226853205062FF200130002627
:10190000FF2781421CD121688A6882438A6020684F
:1019100081680122120391438160FFF7FBF9009077
:1019200009E00220F8BDFFF7F5F90099411A7D2082
:10193000C00081421BD82068C068C007F3D020E0F7
:101940002068816801225202914381602068816889
:10195000120191438160FFF7DDF900900DE0FFF780
:10196000D9F90099411A7D20C000814205D920682B
:101970004762032068702E70F8BD2068C068800739
:10198000EDD520684762012068702E700020F8BDF8
:10199000F0B50C46FF219C460131254640268F05B7
:1019A0001D4B20358A4204D161620168C869496CC7
:1019B00005E00121490261620168086A896C8202BE
:1019C000920E22704204520E62704206520EA270B3
:1019D000020C49043240490CE27061608100890EBA
:1019E0002970014639401840E16160616046002875
:1019F0000FD1207801F0F4F92070607801F0F0F94F
:101A00006070A07801F0ECF9A070287801F0E8F996
:101A100028700020F0BD00008080808010B5006834
:101A20000B464068C021C94301400002000ECC04AF
:101A3000D870E40E5C708C06A40E0904490F9C70EB
:101A40001970002A0AD101F0CBF9D870587801F04A
:101A5000C7F95870987801F0C3F99870002010BD4C
:101A600030B50B460168896A596001680969490403
:101A7000490C9960006804680F48214601408802BB
:101A80004D04800E18706D0E49065D70490E9970F8
:101A90006102490E40242140D970002A0AD101F088
:101AA0009FF91870587801F09BF95870987801F0F8
:101AB00097F99870002030BD7F7F7F0070B50400DB
:101AC00005D0254620356878002802D006E00120A0
:101AD00070BD00202870204600F042F80220687097
:101AE0002168CA204862216853204862204601F0DC
:101AF0008AF9FF210028206803D041620420687021
:101B0000E5E78268154B1A40826022689068636836
:101B1000A669184323693343184390602268E0683C
:101B200010612068026923891B041A43026120683E
:101B3000C26880239A43C2602068C26C92089200F7
:101B4000C264E269606902432068C36C1A43C264DC
:101B50002068416201206870002070BDBFFF8FFFC8
:101B600000B597B00420009000200A90FF200130BB
:101B700002906846FFF72EFC002801D0FEF7DAFE3F
:101B800020200E90C0020F900EA8FFF74DFA0028FB
:101B900001D0FEF7CFFE08480169012292041143EB
:101BA0000161002211460220FFF710F90220FFF721
:101BB000EBF817B000BD000040100240FEB506462D
:101BC0000446203630780B46012842D00120307080
:101BD0000220707020681D46002720358068002A8A
:101BE00039D0400655D5187801F0FAF8287801F078
:101BF000F7F819789878090408435978DA780902CF
:101C0000120411430843297809060843D969084397
:101C10005969084305469969586808430090216846
:101C2000CA204862216853204862FF205A6A013066
:101C3000802182424AD1226893688343936022685C
:101C4000D0680840FF388238D060FFF763F8019011
:101C500029E00220FEBD400600D4DF70187801F0B4
:101C6000C7F80204587801F0C3F8000202439878DC
:101C700001F0BEF80243D87800040243287801F04E
:101C8000B7F800060243D869024358690243154673
:101C9000C1E7DF70AAE7FFF73DF80199411A7D20FF
:101CA000C00081422AD82068C068C007F3D02068ED
:101CB000C56121680098486420688168FF2201326C
:101CC0001143816020688168120130E020688268D9
:101CD00001235B029A4382602068C2680A401D4962
:101CE0005118C160FFF716F801900EE0FFF712F8E7
:101CF0000199411A7D20C000814206D92168FF2048
:101D00004862032070703770FEBD2068C06880078D
:101D1000ECD5206805622168009888642068816895
:101D2000012252021143816020688168120111432F
:101D3000816009480268012149040A4302608268FF
:101D40000A4382602168FF2048620120707037706A
:101D50000020FEBD7FFDFFFF00040140F8B50546F1
:101D60000446203528780B46012815D0012028701C
:101D7000022068705878002A10D001F031F8987865
:101D800001F02EF8D8789E78000406435878197828
:101D900000024903084316E00220F8BDC10603D53E
:101DA000EF2108400A305870D87801F021F8060475
:101DB000587801F01DF800020643987801F018F8F1
:101DC00006431878400306432168CA204862216808
:101DD00053204862204601F016F80027002811D150
:101DE00010480640206846602068C1688022914300
:101DF000C1602068806880060CD4204600F08CF812
:101E0000002807D02168FF204862042068702F70E6
:101E10000120F8BD2168FF204862012068702F7002
:101E20000020F8BD3FFFFF00F8B506460446203607
:101E300030780D4601280ED00120307002207070DD
:101E4000206800278068002A07D040061AD5287825
:101E500000F0C6FF17E00220F8BD400600D4EF7086
:101E6000287800F0C5FF0204687800F0C1FF000286
:101E70000243A87800F0BCFF0243E8780004024364
:101E800000920BE0EF702978A8780904084369787C
:101E9000EA78090212041143084300902168CA201D
:101EA0004862216853204862204600F0ACFF0028B9
:101EB0001FD118490098084021680860206881688F
:101EC00001229204914381602969E86808432168EE
:101ED0008A68104388602068C16880229143C1608D
:101EE0002068806880060CD4204600F015F8002891
:101EF00007D02168FF2048620420707037700120ED
:101F0000F8BD2168FF204862012070703770002002
:101F1000F8BD00007F7F7F0070B504460068C1688F
:101F2000A0229143C160FEF7F5FE7D260546F6002E
:101F300006E0FEF7EFFE401BB04201D9032070BD62
:101F40002068C0688006F4D5002070BD70B504001C
:101F500012D00221204640300546417420680168B5
:101F6000402291430160204600F04AF8002161655B
:101F700069742974084670BD012070BD70B50400F5
:101F800006D025464035687C0026002802D005E0B2
:101F9000012070BD2E74204600F033F802206874D2
:101FA00020680168402291430160A168606822694D
:101FB0000843E16811430843616901220843A169AC
:101FC000520211400843E1690843216A0843A16AAB
:101FD000084321680860A0690421000C0840616A78
:101FE0000843216848602168E06A08612068C16987
:101FF00092009143C161666501206874002070BD44
:1020000070477047F8B504460027684607802646A3
:102010004036707C012802D0707C22287ED10029B5
:102020000CD0002A0AD0002B08D0307C012875D0B3
:1020300001203074707C012802D003E00120F8BD3B
:10204000322070746765A263A387E3872163A38648
:10205000E386A764E7640125A06A6D03A84207D15F
:1020600020680168A9430160206801682943016074
:1020700020680168490603D40168402211430160C9
:102080000121FF20E268C90205308A42616866D1F9
:10209000002904D081420CD1E08E012809D1206BA7
:1020A00021680088C860206B801C2063E08E401E81
:1020B000E086E08E002843D1A06AA84246D120687D
:1020C000016801221203114301603FE02068C068EB
:1020D000A16B0880A06B801CA063B0E000220221ED
:1020E0002046069B00F0FAFE00287DD1206B216877
:1020F0000088C860206B801C2063E08E401EE08654
:10210000E08E002808D1A06AA84205D120680168A5
:102110000122120311430160002200E0CCE0012102
:102120002046069B00F0DAFE00287FD12068C068B8
:10213000A16B0880A06B801CA063E08F401EE0872D
:10214000E08E0028CAD1606800287BD100220121DE
:102150002046069B00F0C2FE002867D1B6E70029A2
:1021600004D081420BD1E08E012808D1206B411CA4
:10217000216321680078C860E08E401EE086E08E12
:10218000002845D1A06AA84205D120680168012233
:10219000120311430160002201212046069B00F03A
:1021A0009DFE002842D12068C068A16B087046E0FF
:1021B000002202212046069B00F090FE002835D127
:1021C000206B411C216321680078C860E08E401EAE
:1021D000E086E08E00280AD1A06AA84207D12068D4
:1021E00002680121090300E020E00A4302600022A6
:1021F00001212046069B00F071FE002816D12068C0
:10220000C268A06B411CA1630270E08F401EE08792
:10221000E08E0028CCD16068002813D10022012173
:102220002046069B00F05AFE002802D00320F8BD8D
:1022300008E02068C168A06B421CA2630170E08FB7
:10224000401EE087A06AA8420FD10022012120464B
:10225000069B00F043FE002802D0606D02210EE0D4
:102260002068C068694608800888012280212046CD
:10227000069B00F033FE002804D0606D2021084347
:102280006065D3E701207074A06AA84211D120686C
:102290008168C943C9060CD4616D0222114361658E
:1022A0000168A9430160206801682943016037740F
:1022B000C4E637740020BAE70220B8E770B504001E
:1022C00019D02421204660300646417220680168FA
:1022D00049084900016020680025056020684560C4
:1022E00020688560204600F03EF8E5667572B5729C
:1022F0003572002070BD012070BD70B5040005D09E
:1023000025466035687A002802D006E0012070BDBD
:1023100000202872204600F02BF8242068722068E4
:102320000168490849000160606A002802D020461F
:1023300002F092FA204602F025FB0128E7D020683F
:1023400041680922D20291434160206881682A22B3
:102350009143816020680168012211430160204699
:1023600002F0E0FA70BD10B503F0CEFA10BD000027
:1023700010B50448816B012252041143816303F0BC
:10238000EDFA10BD00100240FFB506460446603667
:10239000707A83B00D46202858D1002D0CD00598B6
:1023A000002809D00120A1680003814207D12069DB
:1023B000002804D1E80702D0012007B0F0BD307A30
:1023C000012843D0012030720020E0662120707285
:1023D000FEF7A0FC01902746403705983882059803
:1023E000788218E0788A401E788206980090002251
:1023F00080212046019B02F0DDFB002818D101203E
:10240000A1680003814202D12069002812D021680E
:10241000287888626D1C788A0028E3D1069800909D
:10242000002240212046019B02F0C4FB002808D076
:102430000320C2E728882168C005C00D8862AD1C52
:10244000E9E72020707200203072B6E70220B4E77E
:1024500010B5184886B00178002929D101210170F2
:1024600016480024144A04640260C4610322846193
:102470009207846042608163C46004624462022205
:10248000C462C26301610421046341610C48416B71
:102490004215114341630948FEF764FA0320019095
:1024A000039005206A4610210294000700F074F89A
:1024B00006B010BD4A00002000240140B0040020F6
:1024C0000010024010B500F0CFFA04484068804781
:1024D00003F0F0F902490020487010BD885A000846
:1024E0004A00002010B501210020FEF78BFC10BD32
:1024F00010B5EFF3108472B6FFF7E4FF05480168EA
:1025000004221143016084F3108801210846FEF77C
:1025100091FC10BD0070004010B5EFF3108472B64E
:102520000E48016801221143016001684907FCD58A
:102530000168012212061143016001688901FCD57E
:10254000C16803221143C160C1680907890F0329CB
:10255000FAD100F077F884F3108810BD0010024023
:10256000014600200A0A00D00820084A114201D082
:1025700004221043064A114201D002221043054AA8
:10258000114201D00121084370470000F0F0000023
:10259000CCCC0000AAAA000038B50B231B07C51835
:1025A000114B0FD01C152D1B18D02D1B19D0A54277
:1025B000DD6A05D108242543DD62DB6A234007E09C
:1025C0008024F8E7DC6A01252C43DC62DB6A2B40BF
:1025D000009311601146FEF7D1FA38BDDD6A02247E
:1025E000E9E7DD6A0424E6E70010024010B5FFF7D2
:1025F000B7FF810002484058002800D0804710BD36
:102600000402002070B51C4615460E460846FFF72A
:10261000A7FF002C0DD0074980000C50304600F079
:1026200021FB044600222946FEF7D0FB2046FEF798
:10263000ABFB70BD0402002010B5D2B2FEF764FB04
:1026400010BD000010B50F4C6078002818D1FFF7BE
:10265000FFFE0D480068804700F064FA00F0A8F81B
:1026600003F030F90020FEF7C1F80120FEF7BEF8B4
:102670000220FEF7BBF80320FEF7B8F801206070D7
:1026800010BD00004A000020885A000870B5410EB5
:10269000C0017D220023FDF741FD054600F080F8D2
:1026A000044600E000BF00F07BF8001BA842F9D30D
:1026B00070BD0000F8B5064600240D4622462748A6
:1026C000FFF7CEF90022314624486F68FFF7A6F9DC
:1026D000002229462148FFF7C3F96868B842F1D1C2
:1026E00000201F4A1F4BF17803E087070AD0E41847
:1026F000401C8142F9D8880706D0707800211A4A18
:10270000401E14E0A418F3E7174A707800210C3239
:10271000401E04E0535C154F7B431C19491C884242
:10272000F8D806E0535C114F7B431C19491C8842C2
:10273000F8D86878A9783C2250430A182878E12113
:1027400009014843B178094B594340181018084A09
:10275000696800198002511A4018F8BD440200202F
:102760000085E2018033E101F95B0008805101003E
:10277000FF03000003207047014800687047000015
:102780009002002000B587B0694605A8FFF792FFC8
:102790000249096807B0401A00BD000090020020FD
:1027A00000B587B0694605A8FFF784FF07B000BDF4
:1027B00010B5084C207800280AD100F03BF8FF2122
:1027C00001310548FFF788F800F064F80120207017
:1027D00010BD00003C0000204402002010B5012084
:1027E00000F01CFA0148FFF747F810BD4402002032
:1027F00070B50446FFF7C6FF211A0D4D0220285E72
:10280000C01C814203D9012000F008FA02E0012037
:1028100000F0F8F900F00EFA002805D1012000F0D0
:10282000FDF90220285E241A204600F03FF870BD12
:102830003C00002010B51449144886B0002412C092
:102840001F210160846004611149446141600838BE
:10285000FFF734F910206946C8750120487588755E
:102860000875002205A90948FFF778FA0094019439
:1028700004940022694605480394FFF7D5FA0348FB
:10288000FEF7D7FF06B010BD00280040440200202C
:10289000FF03000010B5044C2046211D1830FFF73F
:1028A00009FF206010BD000090020020F0B587B045
:1028B000044614223F4901A8FDF760FC3D4850380A
:1028C000406E009000F07EF83B4802993B4A401A67
:1028D000A105890D081887B2A10A6846807853427D
:1028E00002E08918401C80B29942FAD26A461579F2
:1028F000E122120102E0891A6D1CADB29142FAD2B6
:102900006A46547902E0641CA4B23C393C29FAD2EC
:10291000927951188EB20121890203E07A1A761C4D
:1029200097B2B6B28F42F9D203E03C3E641CB6B215
:10293000A4B23C2EF9D203E03C3C6D1CA4B2ADB273
:102940003C2CF9D203E0183D401CADB280B2182DEA
:10295000F9D26946C978890769464A7827D0184963
:10296000491E515C814202D2FDF7C2FB0846124962
:10297000CA1B10492C394A60052252068A618E70A2
:102980004C700A460D70203210706846C079C870CD
:102990000020C861FF2248610132C8604A620861B4
:1029A000024608462438FFF709F907B0F0BD04498C
:1029B0000C31D5E794020020FF03000080AEFEFF3B
:1029C000F95B000810B506480168C868802210400D
:1029D000FF388238C86051000148FEF77DFF10BD06
:1029E0004402002010B5410EC0017D220023FDF7F6
:1029F00095FB10BD30B5194C87B0607800282BD1FD
:102A00000220FEF7CBF9012826D16070694605A89F
:102A1000FFF750FE12490546FF2208460023013207
:102A20002438FEF7B5FF0E481823014620310978F7
:102A30000278594351183C225143427889183C226C
:102A40005143827880888918064A8902101A091829
:102A5000681A61880818608007B030BD3C0000200B
:102A600068020020FF03000070B586B0142168469C
:102A7000FDF79DFB2048FFF769FA2048426A811460
:102A80000A434262426A8A434262052601240025C3
:102A900036076A468021304602950194FFF77CFD97
:102AA000002280213046FFF7C7FD022002906A46CF
:102AB00040213046FFF770FD002240213046FFF7ED
:102AC000BBFD02950E4D6A4608212846FFF764FDBE
:102AD000002208212846FFF7AFFD0294E4036A466E
:102AE00021463046FFF758FD012221463046FFF7C8
:102AF000A3FD06B070BD0000AC0200200010024033
:102B00000004005001B582B00020C04300900123B2
:102B100001AA02A90248FFF775FA684680880EBD2F
:102B2000AC02002030B585B014216846FDF73FFBAC
:102B30002E482D4901602F4A2D4B0021126803E0D9
:102B40005208491C072901D29A42F9D84A078B0733
:102B5000D20FDB0F52011B011A43C90700D0082115
:102B60000024846004610A434461FF21C46005318C
:102B700084624160012149020346183316C344624E
:102B80001D48416B8214114341631848FFF7F6F961
:102B9000002801D0FDF7CEFE022001900290032014
:102BA00003906A46082104941448FFF7F5FC0524B5
:102BB00024076A4640212046FFF7EEFC6A46802142
:102BC0002046FFF7E9FC01210191CD0302916A46FD
:102BD00029462046FFF7E0FC012229462046FFF760
:102BE0002BFD05B030BD000000300140AC020020DC
:102BF000809698003400002000100240000400502D
:102C000000BFFDE7EFF3108172B6034A1368034378
:102C100081F31088136070474C000020EFF310819F
:102C200072B6034A1368834381F3108813607047B8
:102C30004C00002001480068704700004C00002054
:102C400010B507480068002802D0FFF74BFC10BD04
:102C5000FFF74EFCFFF760FCFFF7CCFE10BD000055
:102C60004C000020FF220132811A90420CD009DC76
:102C700008280DD008DC012808D0022806D0042836
:102C800002D105E00F22120207207047052070478D
:102C900006207047704700008307FF22DB0E9A4032
:102CA0008907090E994000280BDA0007000F083841
:102CB000830808489B001818C36993430B43C361FA
:102CC0007047830804489B001B181868904308430A
:102CD0001860704700ED00E000E400E0F8B507463A
:102CE00008481E46406B15460C4680472246064C57
:102CF0003946A2800548FDF741FA6570A6700120AB
:102D00002070F8BD885A000840000020040300200D
:102D100010B50348406B804702490220087010BD7F
:102D2000885A00084000002010B5054801F064FDF5
:102D300001210520002209030007FFF77DFC10BDDB
:102D40005400002010B50220FDF782FD0120FDF7A0
:102D50007FFD0320FDF77CFD0020FDF779FD024893
:102D600001F012FD10BD00001003002070470000AC
:102D700070B517490023CA681206120F18D18A6B62
:102D8000154CD500134A02D51268224009E08E6B1B
:102D900001252D072E438E6312688E6B2240AE43B1
:102DA0008E63A24204D103218903884200D101230A
:102DB0000A48016849084900194301600068C007D2
:102DC000C00F984201D0012070BD002070BD0000EE
:102DD0000010024000700040001800000020024077
:102DE00001090A2200075143000F4018C0B2704782
:102DF000002102E00A38C0B2491C0A28FAD20907A9
:102E0000090E0843704770B504460068C16849065A
:102E100013D40021C943C160FDF77CFF7D26054620
:102E2000F60006E0FDF776FF401BB04201D9032013
:102E300070BD2068C0684006F4D5002070BD10B594
:102E4000FFF7CCFC10BD000070B5092000F0F1FCCC
:102E50000546062000F0EDFC0404072000F0E9FC24
:102E600000020443082000F0E4FC0443200A0102AD
:102E7000184A611A514380315043090A461800210B
:102E8000092001F065FB3B2000F0D3FC40242043E7
:102E900001463B2001F05CFB3B2000F0CAFC8006B1
:102EA000FAD40D4800F052FE3B2000F0C2FC204353
:102EB00001463B2001F04CFB3B2000F0BAFC8006B1
:102EC000FAD42946092001F043FB304600F03EFECB
:102ED00070BD0000093D000000A1BC33F8B51D46DF
:102EE00016460F460446FDF715FF31462646403686
:102EF000009000291ED043E0681C1BD0002D05D097
:102F0000FDF708FF0099401AA84213D920684168CC
:102F1000E022914341602068026840218A430260B8
:102F200023E021680A6882430A6021680A68024334
:102F30000A601FE02068816838468843DCD124E0BD
:102F4000681C1DD0002D06D0FDF7E4FE0146009858
:102F5000081AA84214D920684268E0218A434260D6
:102F6000206801684022914301600120A16A40036A
:102F70008142D6D001207074002030740320F8BD47
:102F80002068816838468843DAD00020F8BD704751
:102F90000120704701480079704700006801002057
:102FA000F3B5034600206D4A87B00146002B02D0DE
:102FB000012B48D14FE06948C069FDF7BFFA009086
:102FC00001910898FDF7BAFA06460F46302000F046
:102FD00030FC4007800F02D00024614D01E0002446
:102FE0002546272000F025FC5C494007400F098C4E
:102FF000401C4018FDF7A2FA584A203202929278FB
:10300000012A21D00022564BFDF7DCF822462B4640
:10301000FDF7D8F832463B46FDF7D4F8029A12790C
:10302000012A14D000221346FDF7CCF80322FDF745
:103030005BFA019B009AFDF7DFF90022494BFDF78F
:1030400073F902F0E9FB85E000221346DCE7002279
:1030500001239B07E8E70024106C2546072804D0CD
:10306000082805D0092808D105E000243E4D04E0D9
:1030700000243E4D01E03E4D0024576C0120B84035
:10308000FDF748FA02460B4620462946FDF7B4F9FB
:1030900002460B4600203249FDF7AEF92F4E04469A
:1030A00040360D467089FDF749FA0022314BFDF795
:1030B00089F822462B46FDF737F905910490707A7E
:1030C000001DFDF73BFA03910290307A002800D0F2
:1030D0000220381A8000FDF731FA0090089801911B
:1030E000C000B900401AB17B09014018317B0029AA
:1030F00000D01421401A1C30FDF720FA019B009AE1
:10310000FDF77AF902F02EFA039B029AFDF70CF90B
:10311000002207460E461346FDF73CFA02D2384617
:10312000314601E0002001460022134BFDF74AF82A
:1031300022462B46FDF7F8F8059B049AFDF742F866
:103140000022084BFDF7F0F80C4A0D4BFDF73AF85A
:1031500002F06CFAFDF700FA09B0F0BD680100203A
:103160000000F03F00408F408084FE4080840E418C
:1031700080841E4100001140000020402B8716D99A
:10318000CEF7EF3F70B51D4908601D491D4801F09D
:1031900081FA1C481A49143001F07CFA1948184980
:1031A000283001F077FA0122052011030007FFF70C
:1031B00043FA00F091FBFFF747FE002000F036FDD8
:1031C0000E48001D00F07CF80F4D0024600026180A
:1031D000A85D00F0FBFC70198178407801F0B8F927
:1031E000641CE4B2102CF1D3002000F0EFFC054980
:1031F000002060390871052070BD00000400002027
:1032000071370008C8010020EC5A000810B586B0DC
:1032100014216846FCF7CBFF0D48019002200D4CAD
:1032200002906A4610212046FFF7B6F96A4602214D
:103230002046FFF7B1F96A4601212046FFF7ACF9B5
:1032400001216A4649030448FFF7A6F906B010BDFC
:1032500000001110000400500008005030B585B087
:1032600014216846FCF7A3FF124801900320124D79
:103270000124039002946A4610212846FFF78CF936
:103280006A4602212846FFF787F96A460121284647
:10329000FFF782F96A4661030848FFF77DF90020CD
:1032A000029005206A46210301940007FFF774F994
:1032B00005B030BD0000111000040050000800509F
:1032C00070B50E4D04460368002210212846FFF712
:1032D00099F90022022128466368FFF793F900223A
:1032E00001212846A368FFF78DF901210022490337
:1032F0000348E368FFF786F970BD00000004005042
:103300000008005070B514460E46054600F05EFCFD
:10331000304600F01BFC052000F088FC0120FDF782
:10332000C7FA284600F0B6FA054600F035FFA54278
:1033300001DD002070BD012070BD0000F8B5002542
:1033400068460570874C2079012809D0022857D19A
:103350002046603001F050FA607901287ED1F2E019
:103360006079002818D001284AD14021122001F0AC
:10337000EFF8122000F05DFA694608700878794E7F
:103380008006403600286ADA2021122001F0E0F899
:10339000B07C002876D083E0724E20363079012848
:1033A00035D13F2000F045FA69460870087880075B
:1033B0002DD40B213E2001F0CBF810213F2001F04D
:1033C000C7F83046543001F017FAB079002818D009
:1033D0000D2000F02EFA402101430D2001F0B8F835
:1033E0003046683001F0D0F95F480068002803D00B
:1033F0000069002800D08047357375732587E586FE
:10340000F8BD5848883001F0F7F92571ECE7E18EF6
:10341000564F00290AD1208F002807D1B078002804
:1034200031D0322000F005FAE086E18E208F091AB3
:10343000C9B2C01900F026FAE08E208749487430DE
:1034400001F0DAF9B079002823D00D2000F0F1F96D
:10345000402101430D2001F07BF801E077E029E0F5
:103460004048883001F090F93F4800680028C3D0F8
:103470008768002FC0D00E22B256E18E00233B4851
:10348000B847B9E70BE037480121363000F0FAF9C8
:10349000CBE734482571883001F0AEF9E4E72571B7
:1034A0003048743001F0A8F92F4800680028A7D0F0
:1034B000006952E0192000F0BCF940B230760106F4
:1034C00005D5C043401C0006800E474201E00006BF
:1034D000870E1A2000F0ADF92549A268002F09DAFD
:1034E0008A4203D901110818C01907E00111081810
:1034F000C01907E08A4203D9011108189D3802E07B
:1035000001110818A4387083132000F092F9307765
:103510000146164800F0B6F9B07C002800D12571AC
:103520001048743001F068F90F4800680028BED0D8
:103530008468002CBBD018231A22F356B25E317F68
:103540000A48A047F8BD0821122001F001F80648FA
:10355000257100680028F5D000680028F2D0804767
:10356000F8BD000068010020040000206800002071
:1035700040DD4A1F70B5304C25462379E61F6A7935
:10358000E98E288FF93E2035012B11D0022B28D14E
:10359000002A26D10A1A23461B8FE97E30461818C6
:1035A0008A4243DD00F0FBFF208FE97E40183BE0BC
:1035B000002A17D0012A14D11F48743001F01CF9D9
:1035C0008021122000F0C4FF002020711B480068F9
:1035D000002806D0C068002803D0804718A002F059
:1035E00015FA70BD002908D1002806D1A878002856
:1035F0000FD0322000F01DF9E086E18E208F0A1AEC
:10360000A97E8A420BDD801900F03CF9208FA97E4B
:10361000CCE709480121363000F034F9EDE7D1B2AA
:10362000801900F02FF904E0208770BDD1B200F0BE
:10363000B6FFE08EF8E700006801002004000020DB
:10364000727854696D654F75740A0D0070B5294D17
:10365000294C294608462A7940304979C07B012AFD
:1036600004D0022A01D1002902D170BD002916D050
:103670000129FAD10128F8D10221122000F068FFB7
:1036800020680028F1D040690028EED01C2000F00E
:10369000D0F8216880064969800E884770BD154CB6
:1036A000012620342673607B0028F7D1204668303D
:1036B00001F0A2F86673112000F0BBF84008404208
:1036C000A0731B2000F0B5F806021C2000F0B1F832
:1036D0000643300A0102094A711A514380315043AE
:1036E000090A401828630C2000F0A3F8400920754F
:1036F00070BD00006801002004000020093D0000AA
:1037000010B51248407900281FD001281DD1122081
:1037100000F08FF80E4CC0070BD00521122000F0EE
:1037200017FF2068002810D0816900290DD00120E2
:103730000AE00421122000F00BFF2068002804D0CA
:103740008169002901D00020884710BD6801002050
:103750000400002005484079002806D103482030A5
:10376000017B002901D1012101737047680100200C
:10377000F8B51E4C002520791D4F01280AD00228DB
:1037800007D125713868002803D04068002800D090
:103790008047F8BD6079002815D1144E0B212036E2
:1037A000357375732587E5863E2000F0D1FE102124
:1037B0003F2000F0CDFEB079012809D030462571B8
:1037C000683001F019F838680028E2D0C068DDE7F9
:1037D0000D2000F02EF8402101430D2000F0B8FE2E
:1037E0000248883000F0D0FFEDE7000068010020BB
:1037F0000400002070B50025012000F0E7F9FF214A
:10380000112000F0A5FE052000F010FA0024012090
:10381000FDF74EF82C2000F00CF8C007C00FA040B8
:10382000641C0543E4B2202CF1D300F0B5FC28461B
:1038300070BD08B50122694600F003F868460078BB
:1038400008BDF8B50446012715460E46FF030520BE
:10385000002239460007FEF7EFFE6006400EFFF734
:1038600051F9002405E00020FFF74CF93055641CA5
:10387000E4B2AC42F7D30520012239460007FEF737
:10388000DBFEF8BD0A4610B501460020FFF7D9FF60
:1038900010BD000010B5002804D0012808D0002079
:1038A000C04310BD1120FFF7C4FF4008404210BDC7
:1038B000074808498068884204D91B20FFF7B9FFF0
:1038C0009D3810BD1B20FFF7B4FFA43810BD0000C9
:1038D0006801002040DD4A1F30B585B014216846DC
:1038E000FCF765FC0120019003200E4D002403909D
:1038F00002946A4601212846FEF74EFE002201216D
:103900002846FEF799FE0120FCF7D2FF6A46012106
:1039100028460194FEF740FE0620FCF7C9FF05B0DB
:1039200030BD000000080050F3B5384C0646617900
:10393000002081B0002902D0012964D128E00020B4
:1039400020876846314D017AE1862035A878002825
:1039500009D0322000F0FCFD6846027A501E3F2854
:1039600006D8EA760AE0012102A800F018FEF3E783
:103970003146274801F044FF2020E876E97E3046B2
:1039800000F00DFE208FE97E40182087A06A3AE003
:103990001E4DBE274035687C01281FD03320FFF71D
:1039A00048FF3840411C332000F0D2FD1D213B2050
:1039B00000F0CEFD6846017A2977222000F0C8FD8C
:1039C00000210E2000F0C4FD00210D2000F0C0FDFC
:1039D0000120FFF72EFF40070AD00EE03320FFF74B
:1039E00028FF38400146332000F0B2FD1921DEE700
:1039F00000F0E4FB0120FCF75BFF6846017A3046EB
:103A000000F0CDFD606D00F0F5FBFEBD680100200B
:103A10006800002070B504460920FFF70AFF0C4D2E
:103A2000032C08D000202870052001220221000765
:103A3000FEF702FE70BDC109064802D00122022134
:103A400001E001220421FEF7F7FD0120287070BD7E
:103A50006801002000080050F0B5384985B00A78A8
:103A6000824237D0052500272D070324344E0870E5
:103A7000002831D014216846FCF799FB01946A466E
:103A80000221284602970394FEF786FD00220221B8
:103A90002846FEF7D1FD6A4602213046FEF77CFD3E
:103AA000002202213046FEF7C7FD6A460421304657
:103AB000FEF772FD002204213046FEF7BDFD2149CC
:103AC000214800F0E7FD02211F4800F04BFE1E4890
:103AD00000F05AFE05B0F0BD1B4800F08DFE01223B
:103AE00011032846FEF7A8FD0320FCF7E1FE142190
:103AF0006846FCF75CFB012001906A4602210297B0
:103B000003942846FEF748FD002202212846FEF7CE
:103B100093FD6A4602213046FEF73EFD0022022157
:103B20003046FEF789FD6A4604213046FEF734FD33
:103B3000002204213046FEF77FFDCBE70000002085
:103B400000080050292D00085400002070B50546DB
:103B50001048114E856031462846FCF7C9FA0446E4
:103B600030466043281A0002711040183146FCF7B5
:103B7000BFFA210244182002010E062000F0E8FCE2
:103B80002004010E072000F0E3FCE1B2082000F061
:103B9000DFFC70BD68010020093D000070B50D46D6
:103BA000044600F013F8002C04D0012C0AD1294659
:103BB000232005E004488078002803D129463220DC
:103BC00000F0C6FC70BD00008801002010B5164949
:103BD0004A79824226D04871012810D0002000F096
:103BE00025F80120FFF725FE4106490E012000F0CF
:103BF000AFFC0021402000F0ABFC30210FE00020A2
:103C000000F014F80120FFF714FE80210143012089
:103C100000F09EFC0021402000F09AFC0021412091
:103C200000F096FC10BD00006801002010B50400F3
:103C30000FD00020FFF710FF2046FFF7EBFE01201A
:103C4000FFF7F7FDC108C9002143012000F080FC07
:103C500010BD0120FFF700FFF1E770B50446092011
:103C6000FFF7E7FD06464D20FFF7E3FD054670062A
:103C7000400E70210843C1092AD0112C02DD072112
:103C80000D4302E0ED08ED002D1DE943490703D087
:103C9000022C0CDA02240DE0052C01DA052402E0E6
:103CA000142C00DD142401090901641F05E0112C06
:103CB00000DD112401090901A41E2007000F0143A2
:103CC000092000F045FC29464D2000F041FC70BD64
:103CD0000021C9438C4201DA0C4602E00E2C00DDC3
:103CE0000E2401090901641CE7E70000F8B58D4CBA
:103CF000064660790027002802D0012825D125E05A
:103D0000884D40202035AF79FFF793FD8107890F5B
:103D100040200C3100F01CFC4120FFF78AFD3E21C1
:103D200008400146C131412000F012FC3520FFF768
:103D300080FD8006800EA8761E210D2000F008FC74
:103D40000020287368732087E0867DE0754D40353C
:103D5000687C012825D03320FFF76BFDBE21084089
:103D6000411C332000F0F4FB1D213B2000F0F0FB50
:103D7000206C09287ED23120FFF75BFD4106490EF9
:103D8000312000F0E5FB0021302000F0E1FB206C49
:103D9000030000F06EFF0910171E252C333D3D3D3A
:103DA00041003320FFF745FD41210143332000F05E
:103DB000CFFB1921D9E748212F2000F0C9FB5A4930
:103DC000A06821E044212F2000F0C2FB5749A068E1
:103DD0001AE044212F2000F0BBFB5549A06813E0F6
:103DE00044212F2000F0B4FB5249A0680CE044218C
:103DF0002F2000F0ADFB5049A06805E044212F20A2
:103E000000F0A6FB4D49A0684018FFF79FFE03E0B5
:103E100040212F2000F09CFBE87BAF7C012835D0AF
:103E20001F21112000F094FB4020FFF702FD8106C6
:103E3000890E402000F08CFB00210F2000F088FB51
:103E400000210D2000F084FBFF2101313C48FCF7EC
:103E5000AEF901202071002E08D03248314674306E
:103E600000F080FC2F48743000F08EFC6079002850
:103E700016D000E003E0002F4FD005204EE03120A7
:103E8000FFF7D7FC802101433120C3E71D2111201A
:103E900000F05EFB4020FFF7CCFC33210140C8E777
:103EA0000520FFF7C3FE002F36D11E48C069FCF77E
:103EB00045FB06460F462720FFF7BBFC4007400F97
:103EC000FCF73CFB00221F4BFCF77CF9044615482D
:103ED0000D46008CFCF732FB22462B46FCF772F9AC
:103EE0000022194BFCF76EF90322FCF7FDFA32466B
:103EF0003B46FCF781FA0022144BFCF715FA01F05F
:103F000031FBFCF729FB011D0648883000F02AFC34
:103F10000448883000F038FCF8BD0620FFF786FE24
:103F2000F8BD000068010020821E0000B4280000D7
:103F3000043D00005E510000127A0000C6A200009D
:103F4000680000200000F03F0000244000408F4047
:103F5000FFB581B015460E4604460D9FFFF736FEAD
:103F60000B998A48090A0091002C04D0012C79D1C0
:103F7000022E5CD9FEE74661C5610A9981618349D9
:103F800020318F700E9ACA700F9A0A71129A4A7174
:103F9000139A8A710B9901842846FCF7CFFA0246DE
:103FA0000B4600207A49FCF727FAFCF7D5FA84B2D1
:103FB000210A022000F0CCFAE1B2032000F0C8FA96
:103FC0003046FCF7B9FC0146122000F0C1FA0A980D
:103FD000FCF7B2FC0146132000F0BAFA2520009944
:103FE00000F0B6FA0B98C1B2262000F0B1FA002F0B
:103FF00001D00E9900E0FF21322000F0A9FA302014
:10400000FFF717FC6F210840002F01D0002100E0CE
:10401000802108430F9909010143302000F098FAEC
:104020003120FFF706FC4021014331209EE0574834
:10403000F61D564C066445644034049860720B9833
:10404000608127730E9860730F98A0731098E073C7
:1040500011982074129860741398A0740C2D02D9D2
:104060000C2503E084E0062D00D20625072E02D0A1
:10407000082E02D003E00B2D45D00C2D43D000209C
:1040800020721D20FFF7D5FB049930014900084339
:104090003843C1B21D2000F05BFA1E20FFF7C9FBB8
:1040A00008210840290108430F99890008430C9909
:1040B0008905890F0843C1B21E2000F049FA262065
:1040C000FFF7B7FBF7210840217AC9000843C1B2C6
:1040D000262000F03DFA0C98C1B21F2000F038FAFB
:1040E0002020009900F034FA0B98C1B2212000F092
:1040F0002FFA002F03D022200E9900F029FAE07B3E
:10410000012802D00DE00120BAE74420FFF791FB1F
:1041100080210143442000F01BFA217C242000F080
:1041200017FA092E02D00321362010E0174819494A
:104130008068884205D90221362000F009FA6421FE
:1041400004E00221362000F003FA7F213A2000F03B
:10415000FFF9062D0ED03120FFF76BFBC108C90017
:104160003120C91C00F0F4F90A21372000F0F0F9E1
:1041700005B0F0BD3120FFF75CFBC108C90031205C
:10418000491D00F0E5F90C21EFE70000680100206F
:1041900080847E4140DD4A1F10B5074800F02CFBAB
:1041A0000548143800F028FB0020FFF73FFD0249C6
:1041B00000207439087110BDDC01002010B50748DB
:1041C00000F01AFB0548143800F016FB0120FFF739
:1041D0002DFD024900207439087110BDDC0100205A
:1041E00010B504460120FFF7F1FC2146392000F00C
:1041F000AFF910BD10B50146264800F0B3FA254CC2
:10420000603C6079002802D001282CD119E04020C0
:10421000FFF70FFB8107890F4020103100F098F95C
:104220004120FFF706FB3E210140412000F090F9BC
:104230003520FFF7FEFA81061648890E4038817650
:1042400011E014482038C07B012815D0F721112037
:1042500000F07EF94020FFF7ECFA8106890E40203D
:10426000403100F075F9022020710A4800F08CFA04
:104270000320FFF7DBFC10BDF521112000F068F9E9
:104280004020FFF7D6FA3321084001464031402054
:10429000E7E70000C8010020FFB581B01E460446D4
:1042A0000C9F0A9DFFF792FC0298FFF7D6FC73481B
:1042B000390A009101462031002C06D0012C72D120
:1042C000029A0A77022E56D9FEE7029A0273039ADF
:1042D0004661C561026107840D9A8A700E9A0A715F
:1042E000119A4A71129981620398FCF727F900220A
:1042F000634BFCF781F8FCF72FF984B2210A042004
:1043000000F026F9E1B2052000F022F92846FCF77A
:1043100015F902460B4600205A49FCF76DF8FCF7E8
:104320001BF984B2210A022000F012F9E1B2032045
:1043300000F00EF92520009900F00AF9F9B22620C4
:1043400000F006F93020FFF774FA6F2108400D994C
:10435000002901D0002100E0802108430E990901C5
:104360000143302000F0F4F83120FFF762FA4021D9
:104370000143312073E0F61D404C0664456440342F
:104380000B99617267810D9921730F99E173109AEE
:1043900022740E9AA273119A6274129A42650C2DBD
:1043A00002D90C2503E05CE0062D00D20625072E7D
:1043B00002D0082E02D003E00B2D06D00C2D04D025
:1043C00000202072012902D00DE00120F9E74420ED
:1043D000FFF72FFA80210143442000F0B9F8217C37
:1043E000242000F0B5F81D20FFF723FA0B993001C7
:1043F000490008430D990843C1B21D2000F0A8F8F8
:104400001E20FFF716FA0B210840290108430E99D8
:1044100089000843C1B21E2000F09AF82620FFF759
:1044200008FAF7210840217AC9000843C1B22620C2
:1044300000F08EF82020009900F08AF8F9B22120CF
:1044400000F086F8062D0ED03120FFF7F2F9C108F2
:10445000C9003120C91C00F07BF80A21372000F088
:1044600077F805B0F0BD3120FFF7E3F9C108C900C6
:104470003120491D00F06CF80C21EFE768010020A5
:1044800080844E4080847E4170B506468AB00D46D9
:104490001046FCF753F800221D4BFBF745FFFCF7D5
:1044A0005BF804463046FFF751FB0020079006906A
:1044B00003900590019004904B200521800100237A
:1044C0000291009008941A4629461846FFF7E4FE28
:1044D0003120FFF7AEF9BF210140312000F038F85C
:1044E000F021402000F034F8A021412000F030F805
:1044F0002146084800F036F9064902206039087163
:10450000044800F041F90320FFF790FB0AB070BDAA
:1045100000408F40C801002010B50C4C6079002885
:1045200012D0012810D1FA21112000F011F84020FA
:10453000FFF77FF981088900402000F009F8032087
:1045400020710720FFF772FB10BD000068010020FA
:1045500013B5012201A900F001F81CBDF8B504460D
:10456000012715460E46FF030520002239460007A5
:10457000FEF762F8204680210843FEF7C3FA0024C4
:1045800004E0305DFEF7BEFA641CE4B2AC42F8D33E
:104590000520012239460007FEF74EF8F8BD0A460D
:1045A00010B501460020FFF7D9FF10BD10B5FCF78C
:1045B000B7FB10BD10B594B014210EA8FBF7F7FDA2
:1045C00038216846FBF7F3FD0220009001210A9094
:1045D000039180040C9000240001019410210D909F
:1045E0000B9404916846FCF7F5FE002801D0FCF717
:1045F000A1F91148816B0204114381630F480168DE
:104600000322D2029143C214891801604168C94350
:10461000C906FBD50F200E9003200F901094119423
:10462000012112940EA8FCF7C5FD002801D0FCF76B
:1046300081F914B010BD000000100240007000406D
:1046400010480168821511430160C1680E4A11408B
:10465000C16001680D4A1140016081684908490044
:10466000816001680122920491430160C168FD22CA
:1046700012049143C160002101610549C0038860B3
:1046800070470000001002400C40FF88F6FFF6FE65
:1046900000ED00E000220260426002720261C1602F
:1046A0007047000010B5054A1168002901D00023A9
:1046B0000B720161106000F03FF810BD5000002047
:1046C00070B5FEF759F80446FEF7E4F8031B194CE1
:1046D000206800282DD00146002507E016689E427C
:1046E00002D9F61A166000E0156009690A69002A05
:1046F000F4D100281DD001692160C068002800D1D4
:10470000FEE780472068002813D0FEF73BF80146FB
:1047100020680268914205D901692160C0680028BB
:10472000EFD1FEE7002804D0017A002901D100F082
:1047300003F870BD5000002070B50446FEF71AF86B
:10474000054601202072FEF71DF8216840198842B5
:1047500001D8084603E0FEF715F840192060FEF77F
:1047600047F870BD70B505460846FEF73BF90446AC
:10477000284600F041F8FDF7FDFF844200D20446D0
:104780002C606C6070BD0000F8B50400EFF310857C
:1047900072B62CD0174F3868014602E0A04226D0EE
:1047A00000690028FAD1002660682060267200297E
:1047B0000CD0FDF7E7FF216809182160386802680E
:1047C000914206D22046FFF76DFF10E0FEF762F837
:1047D000F8E70169002908D022680B689A4201D9DC
:1047E0000846F6E70461216101E00461266185F372
:1047F0001088F8BD5000002070B5EFF3108572B638
:10480000144C21680A1E21D000281FD081421BD1E0
:10481000087A00260128086903D000280AD0206001
:1048200014E0002804D00E722060FFF785FF0DE031
:10483000FEF7C8F8266009E0814203D108691061DB
:10484000002803E00A4609690029F5D185F310889C
:1048500070BD00005000002010B5818CC90707D042
:1048600001684A6801235B049A43836A1A434A60D9
:10487000818C890707D501684A6801231B049A4384
:10488000C36A1A434A60818C490707D501684A68A0
:1048900001239B049A43036B1A434A60818C0907E6
:1048A00007D501684A680123DB039A43436B1A4327
:1048B0004A60818CC90607D50268916801231B03F1
:1048C0009943836B19439160818C890607D50168F0
:1048D0008A6801235B039A43C36B1A438A60818C05
:1048E000490612D503685A6801210905046C8A43F8
:1048F00022435A60026C8A4207D10268516803233E
:104900005B059943436C19435160818C090607D5B7
:1049100001684A680123DB04806C9A4302434A60C1
:1049200010BD0000F8B500260446C666FCF7F2F993
:10493000054620680068124F000709D501212B4663
:10494000002249052046009700F034F900280DD1D7
:104950002068006840070BD501212B4600228905FD
:104960002046009700F026F9002801D00320F8BD6A
:10497000202060346072A07226720020F8BD000012
:10498000FFFFFF01FEB50446016880682269E36904
:1049900010436269102700261A4310430A683546FF
:1049A000784B1A4002430A602068416803221203D0
:1049B0009143E26811434160734A2168A0699142C2
:1049C00001D0226A10438A680B231B029A430243D8
:1049D0008A606E4A20686E4990420CD1C868800790
:1049E000800F06D0012843D002283FD0032826D1CB
:1049F00024E0012723E0674A90420AD1C8680C21CD
:104A0000084031D0042833D008282FD00C2816D1E4
:104A100014E0614A904227D0604A904224D05A4A1A
:104A200090420CD1C9680320800201401CD01015AF
:104A3000091A1DD0091A19D0814200D10827022075
:104A4000FCF712FA0190504B514922684039D813B3
:104A500000929A4235D1002F0CD0022F0DD0042F96
:104A600012D0082F1CD113E00027E8E70227E6E761
:104A70000427E4E7FCF752FC08E00868C00601D50B
:104A8000474805E0474803E0FCF768FC002873D07E
:104A9000626851005118814202D81103814201D24B
:104AA000012569E0010E0602500800233018594123
:104AB000FBF734FB032109023B4A411A914259D9C1
:104AC000EEE7E26982422DD13B0000F0D2F8090600
:104AD000080B24192424241F2400019812E0FCF759
:104AE0002DFC0FE008686168C00602D548082F4A0F
:104AF00001E02F4A48088018FBF7FAFA86B20BE06B
:104B0000FCF72CFC616840004A08F4E76168012268
:104B100048081204EFE70125310909013007400F69
:104B2000084327E03B0000F0A4F809070A0D061D22
:104B3000060606290600B3E7FCF7F0FB14E0FCF7D5
:104B4000FDFB11E008686168C00602D54A081448F8
:104B500001E014484A081018FBF7CAFA81B200981D
:104B6000C16009E0FCF7FAFB61684A088018FBF7AE
:104B7000BFFA80B22168C8602846FEBD61684A0855
:104B8000E9E70000F369FFEF00480040003801400A
:104B90004010024000440040004C004000500040E3
:104BA00000093D000024F400FFFC0F0000127A0011
:104BB0000048E801FFB581B017460E4604460A9D3D
:104BC0001DE0681C1BD0002D05D0FCF7A3F804994C
:104BD000401AA84213D920680168FF22A1329143EC
:104BE00001602068816849084900816020206034A4
:104BF0006072A07200202072032005B0F0BD206812
:104C0000C1693046884304D00020B842D9D0002082
:104C1000F3E70120F9E710B500F0CEFE10BD00006B
:104C200037B514460846064B6A46214600F0F8F8A8
:104C300004466946002000F08FFC20463EBD00007F
:104C4000595500082021020C01D010211046020AFB
:104C500001D010460839020901D01046091F820808
:104C600001D01046891E420801D0881E7047081ADC
:104C7000704730B47446641E2578641CAB4200D281
:104C80001D46635D5B00E31830BC184702E008C8AE
:104C9000121F08C1002AFAD170477047002001E0B6
:104CA00001C1121F002AFBD170470000F0B51FB4EC
:104CB00086B00998089A030D0021024314D0514888
:104CC000514A1818504305141198012810981AD009
:104CD000281A401C00264D4F4D4900960191049022
:104CE000002812DA444211E01198012449A3012856
:104CF00001D11098C1430698119A84600360C26084
:104D000041600BB0F0BD4042E4E7044621050020BD
:104D10003F4A001C51410391029012E0E00707D086
:104D200032463B4601990098FBF7FEFA019100904C
:104D300032463B4610461946FBF7F6FA06460F4642
:104D40006410002CEAD10498039B0028029A099968
:104D5000089806DAFBF7E8FA019B009AFBF7E4FAF9
:104D600005E0FBF749FB019B009AFBF745FB044676
:104D70000E460022284BFBF70DFC03D80020C04351
:104D8000014607E00022254B20463146FBF71AFA80
:104D9000FBF7E6FC102409E0002C0ADB0A220023C2
:104DA000FBF7BCF9079B30321A55641E02460A43D2
:104DB000F2D11122641C079B121B1C19119B012BA1
:104DC00003D0012308430ED10AE0084304D0112088
:104DD00010900020119077E71098151A6D1E0BE0C7
:104DE0001098824202DD00236D1C03E0824201DA4A
:104DF00000236D1E002BEED0069811998260C160D1
:104E000030C07EE701FCFFFF104D000000001440A1
:104E10000000F03F300000000000F0430000E03FE1
:104E2000FFB597B00646002518E2252877D1002463
:104E30002746FD49049400E00443761C32780120A3
:104E4000203A90400842F7D130782A280ED002222A
:104E5000307801463039092916D804990A23594374
:104E6000303940181443761C0490F1E7189802C8B2
:104E700004911890002904DA0120400304434842B9
:104E8000049002200443761C30782E2814D104208C
:104E900004437078761C2A2809D11898761C80C89B
:104EA000189009E00A214F43303FC719761C30782B
:104EB000014630390929F5D930786C2810D006DC44
:104EC0004C281AD068280ED06A2817D104E074281C
:104ED00013D07A2812D110E00120400504430CE0E1
:104EE0000121090501E0032109050C437178814284
:104EF00003D1012000052418761C761C307811900F
:104F000066280BD013DC58287DD009DC00287BD024
:104F10004528F6D04628F4D047281AD1A5E118E054
:104F2000632835D0642870D0652812D19DE170289F
:104F30006CD008DC6728F1D069287BD06E280DD0B2
:104F40006F2806D1BAE073282ED0752871D0782842
:104F500059D01A9A199990476D1C7EE16002400F52
:104F6000022809D003280DD00428189801680DD014
:104F70000D60001D189070E11898EA1701680D6027
:104F80004A60F6E7189801680D80F2E70D70F0E7C7
:104F900018986A4601781172001D1890002050720E
:104FA00002A80090012005E0189802C8189000207F
:104FB0000091C04361070DD5002101E00199491C12
:104FC0000191B94212DA8142F8DB009A515C002962
:104FD000F4D10BE0002101E00199491C01918142CB
:104FE000FADB019A0099895C0029F5D101990498AE
:104FF0001A9B471A21463846199A00F097FA0199E8
:10500000401945180BE04FE02CE113E04EE000980A
:1050100000990078491C00911A9A199990470198B3
:10502000401E0190401CF2D1214638461A9B199A25
:1050300010E137E00A200021009001916002410F49
:10504000022907D0189A01CA1892C2179446032958
:1050500008D00AE01898C01DC108C90005C91891F8
:10506000944607E000B2C2179446042902D140B228
:10507000C1178C4600226146944506DA0A46002193
:10508000404291418C462D2102E0210504D52B217F
:105090006A461173012103E0E10701D02021F7E7FF
:1050A000029155E00A200AE0102008E0102000904C
:1050B0000021042004430191082703E00820002177
:1050C000019100906002410F022907D0189A01CA8D
:1050D000189200229446032908D008E01898C01DB1
:1050E000C108C90005C91891944603E080B204299B
:1050F00000D1C0B200210291210729D51199702950
:1051000006D0009A1021019B4A401A4305D00EE0B8
:1051100040216A461173012108E06146014306D02F
:1051200030216A4611731199517302210291009A3C
:105130000821019B4A401A430AD16146014301D12B
:10514000610705D530216A46117301217F1E029146
:105150001199582904D035A10E910DA90D910DE09A
:1051600037A1F9E76146019B009AFAF7D7FF0E9B3A
:105170008C469B5C0D9A521E0D9213706146014342
:10518000F0D10D9805A9081A20300190600703D5C9
:1051900001200004844300E001270198874201DDDB
:1051A000381A00E00020019900904118029809186F
:1051B0000498401A0490E00306D421461A9B199AD9
:1051C000049800F0B3F94519002706E003A81A9ADD
:1051D000C05D199990476D1C7F1C02988742F5DBD2
:1051E000E0030CD521461A9B199A049800F09EF909
:1051F000451904E01A9A3020199990476D1C0099BE
:10520000481E00900029F5DC08E00D980D99007803
:10521000491C0D911A9A199990476D1C0199481EC5
:1052200001900029F1DC63E10928010030313233BB
:1052300034353637383961626364656600000000D2
:1052400030313233343536373839414243444546BC
:105250000000000000F05AF94519761C307800284B
:1052600000D0E2E528461BB0F0BD600700D4062759
:105270001898C01DC108C90048680A680831C30FE2
:10528000DB071891190001D09CA108E0210501D588
:105290009BA104E0E10701D09AA100E09AA143009C
:1052A00011985B08109165280CD006DC452809D0C0
:1052B00046281DD0472841D141E0662818D06728EC
:1052C0003CD13CE00021112F01DB112000E0781CD3
:1052D0000191009008A911A8FFF7E8FC1399059126
:1052E0000021119A15927F1C12980197009150E0AD
:1052F0000120C00703900120019008A9009711A880
:10530000FFF7D4FC139A149905920022119B009286
:1053100012981593059A0192002901D0104602E0D7
:10532000791C40180190381A01D5019804E04042D8
:10533000401E0090781C0190C01B029043E0012F9A
:1053400000DA01270021112F01DD112000E038468D
:105350000191009008A911A8FFF7A8FC13990591E5
:10536000119A0021129815920091019721070CD4EF
:105370000599B94201DB019900E00191012904DDA1
:10538000159A491E515C302906D0B84201DA011D38
:1053900005DA0121029115E00199491EEDE7002887
:1053A00005DC0099411800910199091A03E0019A5E
:1053B000411C914200DD01910099401A401C02906D
:1053C0000120C0070390200706D40299019881426A
:1053D00002DB0020C043029000206946C87707AF77
:1053E000012103980337C907884224D00220119075
:1053F0002B201290039800280CDA404203902D20B5
:10540000129007E00A210398FAF772FE30317F1EEE
:10541000039039701199481E11900029F2DC03980D
:105420000028EFD1791E12980870307820210840AA
:105430004530BF1E387006A8C01BC01D03901098D1
:105440000078002800D00120019941180298C01767
:105450000918039809180498401A401E0490E003A4
:1054600006D421461A9B199A049800F05FF8451952
:1054700010980078002803D01A9A199990476D1C4B
:10548000E00324D521461A9B199A049800F04EF89F
:1054900045191CE00098002807DB00990598884210
:1054A00003DD1598405C199901E0199930201A9A8A
:1054B000904700986D1C401C00900298401E02907E
:1054C000002804D11A9A2E20199990476D1C019931
:1054D000481E01900029DDDC05E038781A9A7F1C0F
:1054E000199990476D1C0399481E03900029F4DC1C
:1054F00021461A9B199A0498ACE600002D00000082
:105500002B0000002000000000000000F8B5044659
:1055100000251E461746880404D405E0394620209D
:10552000B0476D1C641EF9D52846F8BDFFB504468A
:10553000002581B01E46C80301D5302700E0202792
:10554000880404D505E038460399B0476D1C641EF5
:10555000F9D5284605B0F0BD0A68531C0B601070E1
:1055600070470000F8B54A002B4B520DD6182B4A55
:105570000C460546142E2BDA002E12DA284BFAF7C9
:1055800021FE00221346FBF705F840D2002C03DA77
:105590000124E40700253AE02046284337D0214C77
:1055A00014E0214F0B46F7403B402B4331D01C4BBE
:1055B000FAF708FE00221346FAF7ECFF27D2002C78
:1055C00003DD01200005F0400419BC4300251EE066
:1055D000332E1EDC33460027143BFF43DF403842A6
:1055E00017D00F4BFAF798FE00221346FAF7D2FFB6
:1055F0000DD2002C0ADD142E0CD03420811B01208A
:1056000088404019A84200D2641C0546BD4321468B
:105610002846F8BD641CF9E701FCFFFF9C75008873
:105620003CE4377E0000F03FFFFF0F00F8B54A0072
:105630002B4B520DD6182B4A0C460546142E2BDA4E
:10564000002E12DA284BFAF7BDFD00221346FAF7B6
:10565000A1FF40D2002C02DB002425463BE0600085
:105660004008284337D0214C14E0214F0B46F74027
:105670003B402B4331D01C4BFAF7A4FD00221346CC
:10568000FAF788FF27D2002C03DA01200005F0404A
:105690000419BC4300251EE0332E1EDC33460027D0
:1056A000143BFF43DF40384217D00F4BFAF734FE6C
:1056B00000221346FAF76EFF0DD2002C0ADA142EE0
:1056C0000CD03420811B012088404019A84200D210
:1056D000641C0546BD4321462846F8BD641CF9E715
:1056E00001FCFFFF9C7500883CE4377E0000F0BFA2
:1056F000FFFF0F008AB0FBF71BFBFEF75BFFFBF71A
:10570000B5F8FCF79FFF30493048FEF7C3FF0A2188
:105710002E48FFF727F82D48FFF736F82B482C497D
:10572000143081602B492C4DC160A9688847696994
:105730002A48884700242A480694012608900594A0
:105740000794082002A9019651C107200090022366
:105750006F6A224614213046B84707940A20029007
:1057600008200694089409960596039404940094DE
:105770000190012307222E6A02211846B04719A082
:1057800000F044F9114E1A4F0C3E3878012802D02F
:10579000022810D10BE0317816A000F037F9002074
:1057A00002E03454401CC0B2315C0029F9D1E96BED
:1057B000124888473C7072B63878002801D1FDF74E
:1057C0003FFA62B6E1E70000452D00081003002013
:1057D000DD2C0008112D0008885A000800A1BC33F8
:1057E000C0C62D0048454C4C4F574F520D0A000083
:1057F0004000002025780D0A00000000DC050000B4
:1058000003E00B780370401C491C1346521E92B2F1
:10581000002BF6D170470000F0B513B4064601998D
:10582000FAF760FF04460D4602460B4630460199E2
:10583000FAF76CFD064601981B4B0F4600280CDA60
:1058400000223046FAF7ACFF0CD90022174B304645
:105850003946FAF79FFE1DD214E000223046FAF7CF
:105860009FFF08D20022124B20462946FAF74EFD30
:1058700004460D460EE000220C4B30463946FAF73E
:1058800089FE07D800220A4B20462946FAF79AFCDF
:1058900004460D46019A69004908D20FD2072046F6
:1058A000114303B0F0BD00000000E0BF0000E03F86
:1058B0000000F03F10B50248FCF700FD10BD0000ED
:1058C0004004002010B50F480D490160E121490254
:1058D000416000218160C160016181610C214161F1
:1058E000FCF70BFD002801D0FBF724F80022012172
:1058F0001C20FBF76BFA1C20FBF746FA10BD0000DA
:10590000004400404004002010B586B014216846D1
:10591000FAF74DFC1048C26A01210A43C262C26A0A
:105920000A400592C26A0A43C262C06A052408405E
:10593000059003200190002002900420240700908D
:1059400069462046FBF71AF9082000906946204670
:10595000FBF714F906B010BD0010024030B587B057
:1059600014216846FAF723FC1248C26A01210A434F
:10597000C262C26A0A400592C26A0A43C262C06A2F
:10598000042408400094059002200190032005257E
:1059900002912D070390694604942846FBF7EEF820
:1059A00008200090694604942846FBF7E7F807B002
:1059B00030BD00000010024010B5114C0FE0EFF3B5
:1059C000108072B60F498918521CD2B2628080F3DF
:1059D0001088FF232D3301220B48FCF7D5FC2088CB
:1059E0006288801AFF300130C117090E0918090AB0
:1059F0000902401A0028E2DC1C20FBF7BBF910BDAD
:105A00004600002040030020400400200FB4F0B501
:105A1000A1B027AAEFF3108472B668462699FFF763
:105A2000FFF8174DC6B228888119FF291548298823
:105A300008D8401832466946FAF7A0FB2888801932
:105A4000288012E0FF220132511ACFB229883A464B
:105A500040186946FAF792FBF01BC6B26846C119B6
:105A600032460848FAF78AFB2E8084F310881C20FF
:105A7000FBF7A2F921B0F0BC08BC04B01847000045
:105A800046000020400300205D3200080D3200086F
:105A900085310008952F0008CD3B00084D3B0008DC
:105AA00005330008F5370008513F00089942000807
:105AB000912F0008A12F00082939000899410008FA
:105AC000BD410008ED3C0008194500088944000864
:105AD0009538000851450008333800085D45000836
