:020000040800F2
:1000000040160020D5000008593A0008AD3000081D
:1000100000000000000000000000000000000000E0
:100020000000000000000000000000002F3C00085D
:100030000000000000000000A13A0008994F0008ED
:10004000E7000008E7000008753B0008E70000082B
:10005000E7000008230800083308000843080008E8
:10006000E7000008E7000008ED070008E7000008C7
:10007000E7000008E700000800000000E7000008B3
:1000800000000000E7000008000000000000000081
:10009000E700000800000000E7000008C530000885
:1000A000E7000008E7000008E7000008E700000894
:1000B000B3560008153B0008E7000008E7000008F9
:1000C0000348854600F080FB00480047C9610008EE
:1000D000401600200448804704480047FEE7FEE73A
:1000E000FEE7FEE7FEE7FEE72D500008C10000082E
:1000F00030B50B46014600202022012409E00D46C0
:10010000D5409D4205D31D469540491B2546954047
:1001100040191546521E002DF1DC30BDF0B51FB45C
:100120000646002082B005464024019100901BE065
:10013000019922460F46304600F050FA049A059B7A
:10014000801A994110D310461946224600F036FA1B
:10015000361A8F410197224601200021009F00F0AE
:100160002DFA38184D4100902046641E0028DFDC2F
:10017000019B00982946324607B0F0BD03460B4369
:100180009B0703D009E008C9121F08C0042AFAD24D
:1001900003E00B780370401C491C521EF9D27047D3
:1001A000D2B201E00270401C491EFBD2704700220F
:1001B000F6E710B513460A4604461946FFF7F0FF66
:1001C000204610BDF0B507460846584087B0C00F1E
:1001D000049048000E46590040084908BC1A88415E
:1001E00005D2384631461E4617460B460246580091
:1001F000400810434CD0300D039040055900400D8D
:10020000490D0590401A0290402872DA1803012126
:10021000000B09050843019004980092002805D0BE
:100220000199524200208841009201900298402199
:100230000A1A0199009800F0C1F905460C466B4670
:1002400007CB00F0DCF9C0197141039A0E0D0023B1
:10025000D71756401A467A40164344D0049A002ACB
:100260002DD0029A012A039A15DC1205C01A914179
:1002700001263605001C7141D20F059ED20700935E
:10028000019202962A46234600F0D9F907B0F0BD44
:1002900038463146FAE71605224A0F46B218C01A08
:1002A000B74101210905001C4F4100187F4111464B
:1002B00018187941E20F10436D19644113E0E20709
:1002C0006D0815436408C2071443039A01261205FA
:1002D000C01A91413605001C7141CE0740083043D9
:1002E0004908C01851412A46234600F09BF9CDE742
:1002F000FFE7049801224000C117121A00238B4126
:1003000004983146C417381AA141EEE730B40124ED
:10031000E407634030BC55E730B40124E407614092
:1003200030BC4FE70000E0FFF0B51FB488B00B9978
:100330000998002448400999C00F490049080991CB
:10034000C0070B990090490049080B91099908983A
:10035000A64608431CD00B990A98084318D0099860
:1003600001244000420D4800410D09982405000376
:10037000000B204309900B980003000B20430B90C7
:1003800050181C494018002201901446104605E000
:10039000002001460DB0F0BD032801DA034600E05D
:1003A00003239C46C11A0AAE0AE05F0008ADED5B6C
:1003B0004F00F75B7D430027AA187C41491C5B1E58
:1003C0006145F2DD410004AB5A522104120C0A438C
:1003D000240C401C0828DFDB01980290009970462D
:1003E00001910090059B049A0799069800F027F95F
:1003F000D0E700000DFCFFFFF0B50C465C4085B077
:10040000E40FE40703944C00002664085900944666
:10041000490802460296224321D062460A431ED072
:100420006200570D4A000E032303550D01240246B6
:100430002C492405781B1B0B360B401823432643FD
:10044000614600901C46501AB44103D30098401CEA
:10045000009002E0921800985B41002803DA002027
:10046000014605B0F0BD002001210905074686467A
:1004700011E064461D46141BB54106D36546521B68
:10048000B341744607430C43A646CD0740084908CC
:10049000284392185B4105460D43EAD110461843A4
:1004A00013D06046194650407140084306D060465C
:1004B000101AB34106D20122002306E000220123D4
:1004C000DB0702E00122D243531000987446010575
:1004D000381C6141029C039D0019694100F0A2F89B
:1004E000BFE70000FD03000070B54B005B0803434D
:1004F0000BD04B005C0D002633466542B341D41748
:10050000AD1AA34102DB0020014670BD1205301870
:10051000514170BD0EB5C217C10F5040CA074018F7
:100520000021054B0293019200910A460B4600F010
:1005300086F803B000BD0000330400000EB5054985
:100540000291002100910A460B46019100F077F8D4
:1005500003B000BD330400004A0009030123090B66
:100560001B051943094B10B5520D9A4201DA0020C0
:1005700010BD064B34339A4203DC9A1A00F02EF871
:1005800010BD03495118884010BD0000FF03000052
:10059000CDFBFFFF10B5002904DB0124E407404236
:1005A0008C412146002B04DB1C460123DB07524211
:1005B000A341994200D1904210BD000010B5202AFD
:1005C00004DB0146203A9140002010BD91402023D9
:1005D0009C1A0346E3401943904010BD10B5202AF1
:1005E00004DB0846203AD040002110BD0B46D34022
:1005F000D0402024A21A91400843194610BD10B5DE
:10060000202A06DBCB170846203A1041C1170B43BE
:1006100006E00B461341D0402024A21A9140084323
:10062000194610BD10B5002B08DA0024401C6141AA
:1006300092185B411A4301D14008400010BDF0B54B
:100640001FB482B005460C0003D0084605F058F8E8
:1006500002E005F055F82030024600902146284679
:10066000FFF7ACFF049B059A04460F46184311435D
:10067000084314D0184610431BD0009840210A1A92
:1006800018460599FFF7AAFF05460E46009A0599F8
:100690000498FFF793FF084305D0012004E02046AB
:1006A000394607B0F0BD0020C11705430E432C4367
:1006B000374300990E986305401A7905E40A002231
:1006C0000C43FD0A0A3002D500200146E9E7010586
:1006D000101969410C9C0D9D00196941FFF7A2FF9B
:1006E000DFE70000F8B50546480040080C462843FF
:1006F00004D06000184A400D904201DD2846F8BD44
:1007000015493539884210DC88420BDB290D20035E
:1007100008432903014305D0E00F1049C0074118E1
:100720000020F8BD00200146F8BD161A4020821BAB
:1007300028462146FFF742FF0746009128462146FA
:100740003246FFF74BFF3A46009BFFF76BFF3246FE
:10075000FFF734FFF8BD0000330400000000F03F55
:100760004A0009030123090B1B0519430A4B10B565
:10077000520D9A4202DA0020014610BD064B343376
:100780009A4203DC9A1AFFF729FF10BD034BD218D7
:10079000FFF714FF10BD0000FF030000CDFBFFFFBB
:1007A00010B5002904DB0124E40740428C412146B6
:1007B000002B04DB1C460123DB075242A3418B4282
:1007C00000D1824210BD0000064C0125064E05E016
:1007D000E36807CC2B430C3C98471034B442F7D362
:1007E000FFF772FC90660008B066000810B502487A
:1007F00000F0C4F810BD00008C03002010B50468A0
:1008000063608368102B036803D099600068C2603E
:1008100010BD9A600068C16010BD10B502F014FAF6
:1008200010BD10B5012000F099FA022000F096FAF0
:1008300010BD10B5042000F091FA082000F08EFAE7
:1008400010BD10B5102000F089FA202000F086FAC3
:10085000402000F083FA802000F080FAFF20013071
:1008600000F07CFA0120400200F078FA01208002BA
:1008700000F074FA0120C00200F070FA01200003B9
:1008800000F06CFA0120400300F068FA01208003B8
:1008900000F064FA0120C00300F060FA10BD00000F
:1008A00001A004F00BFFFEE74572726F725F4861B2
:1008B0006E646C65720A000010B5094A0021CB0015
:1008C000D458844207D89B189B68834203D9C80038
:1008D0008018007910BD491CC9B21529EFD3FEE775
:1008E000A465000870B5002402462032517902291F
:1008F00003D00421C16301243CE001680B680E258C
:10090000AB430B6001680B685B085B000B601A4B24
:100910000168994201D1012121E0174B143399421A
:1009200001D110211BE0144B2833994201D18915C4
:1009300015E0114B3C33994201D189140FE00E4B65
:100940005033994202D10121090408E00A4B643373
:10095000994202D10121090501E001210906064B56
:10096000083B59600121517100211171816B0029EF
:1009700000D08847204670BD08000240F8B5044604
:100980009D4801689C4A9C4E9B4F08322068130486
:100990001C363037904201D108221EE0B04201D10E
:1009A00080221AE0B84202D10122D20215E0924A16
:1009B0004432904202D10122D2030EE08E4A5832D4
:1009C000904201D11A4608E08B4A6C32904202D123
:1009D0000122D20501E00122D20625461140203530
:1009E00000293BD00168090738D5016808229143E6
:1009F0000160814920680831884201D108201EE049
:100A0000B04201D180201AE0B84202D10120C002D8
:100A100015E079494431884202D10120C0030EE03B
:100A200075495831884201D1184608E072496C3145
:100A3000884202D10120C00501E00120C0066E49B4
:100A40004860E06B01210843E063042068710020E6
:100A50002871616B002901D02046884766480168EB
:100A6000654A206808321315904201D104221EE025
:100A7000B04201D140221AE0B84201D11A4616E034
:100A80005D4A4432904202D1012292030FE05A4A59
:100A90005832904202D10122920408E0564A6C3248
:100AA000904202D10122920501E0012292061142F8
:100AB00038D00168490735D50168890603D4026832
:100AC00004218A4302604C4920680831884201D1E0
:100AD00004201EE0B04201D140201AE0B84201D10A
:100AE000184616E044494431884202D1012080036F
:100AF0000FE041495831884202D10120800408E0CA
:100B00003D496C31884202D10120800501E001207D
:100B100080063949486005206871216B002901D0A1
:100B20002046884734480168334A20680832531504
:100B3000904201D102221EE0B04201D120221AE0EF
:100B4000B84201D11A4616E02B4A4432904202D1F3
:100B5000012252030FE0284A5832904202D101226A
:100B6000520408E0244A6C32904202D1012252051C
:100B700001E00122520611423CD00168890739D5B3
:100B80000168890603D401680222914301601A4971
:100B900020680831884201D102201EE0B04201D114
:100BA00020201AE0B84201D1184616E0124944311B
:100BB000884202D1012040030FE00F49583188429A
:100BC00002D10120400408E00B496C31884202D177
:100BD0000120400501E00120400607494860E06B24
:100BE000E0630120687100202871E16A002901D0CA
:100BF00020468847F8BD00000000024070B500287C
:100C000005D0034620335979002902D003E00120A2
:100C100070BD002119710221597104682268374999
:100C2000C5680A40816846692943056935432943F7
:100C300085692943C5692943056A29431143216010
:100C40002F492F4C02687831A24206D18A6A1209D4
:100C500012018A628A6A406849E0294C1434A2422F
:100C600007D18A6AF024A2438A628A6A4068000136
:100C70003DE0234C2834A24208D18A6A0F24240282
:100C8000A2438A628A6A4068000230E01C4C3C340D
:100C9000A24208D18A6A0F242403A2438A628A6A84
:100CA0004068000323E0164C5034A24208D18A6AFF
:100CB0000F242404A2438A628A6A8088000416E012
:100CC0000F4C6434A24208D18A6A0F242405A2433F
:100CD0008A628A6A8088000509E08A4209D18A6AA4
:100CE0000F242406A2438A628A6A0079000602431E
:100CF0008A6201205871002070BD00000FC0FFFF04
:100D000008000240F8B5044620300579012D1ED0B8
:100D1000012505710226467120680768AF43076008
:100D20002046FFF76BFD20680168314301602068B1
:100D30000168042211430160206801680822114300
:100D4000016020680168294301600020F8BD02208D
:100D5000F8BD10B501F038FF10BD000010B5044912
:100D60004A69024202D04861FFF7F3FF10BD00005C
:100D700000040140F8B500230124A2E027469F406B
:100D80003A4070D04D68022D01D0122D14D1DD08EB
:100D9000AD002D1800952D6A5E07AC46F50E0F26A6
:100DA000AE46AE406546B543AC460E697546AE40AC
:100DB00065462E43009D2E624D68012D05D0022D03
:100DC00003D0112D01D0122D16D185680326AC4613
:100DD0005D00AE46AE406546B543AC46CE6875464E
:100DE000AE4065462E43866046680D79BE43ED06EB
:100DF000ED0F9D403543456006685F000325BD400B
:100E0000AE46AE430D79B446AE07B60FBE4065465A
:100E10002E430660C6687546AE438D68BD403543B7
:100E2000C5604D68ED004BD5294D6E6B26436E6352
:100E30009E08284DB6007519AC46AD689E07360F62
:100E40000F27B740BD4305273F07B84201D1002710
:100E500015E0214FB84201D1012710E01F4FB842E1
:100E600002D102270BE02BE01D4FB84201D103272E
:100E700005E01C4FB84201D1052700E00627B74026
:100E80002F436546AF60184D2E684F689643FF03A9
:100E900000D516432E606E684F689643BF0300D599
:100EA00016436E60AE684F689643FF0200D5164346
:100EB000AE60EE684F689643BF0200D51643EE6001
:100EC0005B1C0A681546DD4000D057E7F8BD0000FE
:100ED00000100240000001400004005000080050D3
:100EE000000C0050001C005000040140002A01D0FA
:100EF0008161704781627047014800687047000057
:100F00002000002070B5024640325378202B1CD1BF
:100F10001378012B19D00123137024245470046812
:100F200025689D432560046825681E03B543256038
:100F3000046825680D432560006801681943016055
:100F4000202050700020107070BD022070BD70B560
:100F5000024640325378202B1BD11378012B18D036
:100F6000012414702423537003681D68A5431D6079
:100F700005682B680F263602B3430902194329601E
:100F8000006801682143016020205070002010702B
:100F900070BD022070BD7047704770B503689A69D4
:100FA0001968D40507D50C0605D5446C01252C43DA
:100FB00044642C02DC61530508D50B0606D5436C4E
:100FC000082423434364E3010468E361920508D5E0
:100FD000090606D5416C02221143416411020268E0
:100FE000D161416C0B22114202D0416C02F040F9F8
:100FF00070BD026891691268436B002B00D01847DE
:101000007047704770B5040006D0254640356878B3
:101010000026002802D005E0012070BD2E70204679
:1010200000F088F9242068702068016849084900A8
:1010300001600F2160680906884321680861216802
:101040008A680120C00382438A60E1680129A1689F
:1010500008D021229202114322689160E16802299E
:1010600002D005E00143F7E701212268C90251607F
:1010700021684A680F4B1A434A602168CA68824354
:10108000CA60616920690843A169090208432168AF
:10109000C860216AE0690843216808602068016827
:1010A0000122114301606664202068702663AE70DF
:1010B000002070BD008000027047000038B51B4959
:1010C000884220D11A4CE07803281DD005281AD177
:1010D000204614304078A072A07A2179000208439B
:1010E000A081012040062246009002230E32BE213C
:1010F0000E4800F0A5F8002801D0FFF7D1FB012031
:10110000A0700020E07038BD09481230407820718E
:10111000074A01231432BE21044800F0CBF800280E
:1011200001D0FFF7BDFB0420ECE70000CC0300205A
:101130002800002038B5214988423DD1204CE07874
:10114000002812D001281ED0022828D0042833D12C
:10115000224601231532BF21184800F033F8002839
:1011600001D0FFF79DFB052025E001204006144A31
:10117000009002231032BE21104800F061F809E00F
:10118000E078401C17E00E4A01231232BE210B48C2
:1011900000F090F80028F3D0FFF782FBF0E7084A50
:1011A00001231332BF21054800F00CF8002801D0BC
:1011B000FFF776FB0320E07038BD0000CC03002071
:1011C00028000020F8B505460446403568782028F8
:1011D00030D120688069C04300042BD528780128CD
:1011E00028D001202870222068701020A8700026C6
:1011F0006664626263851048E06210486063608DD7
:10120000FF2804D9FF20012320851B0603E0608D01
:10121000012320855B06092080020090208DC2B248
:10122000204602F07DFB2E700221204601F0A0FF37
:101230000020F8BD0220F8BD0000FFFF793600084D
:10124000F8B5044601204003254640356E78069FD8
:10125000202E2AD12E78012E27D001262E7021266D
:101260006E701026AE700026666462626385E76267
:101270000F4A6263628DFF2A03D9FF222285C302CF
:1012800002E0628D2285E36A226B112A00D10020E0
:101290000090208DC2B2204602F042FB2E70012148
:1012A000204601F065FF0020F8BD0220F8BD0000D7
:1012B00079360008F8B50546044640356878202898
:1012C00030D120688069C04300042BD528780128DC
:1012D00028D001202870212068701020A8700026D6
:1012E0006664626263851048E06210486063608DE6
:1012F000FF2804D9FF20012320851B0603E0608D11
:10130000012320855B06012040030090208DC2B29E
:10131000204602F005FB2E700121204601F028FF37
:101320000020F8BD0220F8BD0000FFFF793600085C
:101330007047704710B586B014216846FEF737FF36
:10134000114CE16A02200143E162E16A014005912A
:10135000C0200090122001210190032002910491ED
:10136000039069460948FFF705FDA06B0121490577
:101370000843A06300221146172000F053F81720FD
:1013800000F03CF806B010BD001002400004005010
:101390007047704702480168491C016070470000AF
:1013A0002000002010B506480168022211430160A8
:1013B000032000F007F800F007F8002010BD00003F
:1013C000002002400020704710B500F03FF800F008
:1013D00035F80448016808221143016000F026F83E
:1013E00010BD000000200240C106C90E0120884047
:1013F000014908607047000080E200E0C106C90EA4
:1014000001208840014908607047000000E100E0C9
:10141000C106C90E012088400149086070470000DC
:1014200000E200E010B502F019FB10BD02480168AF
:1014300002151143016070470070004002480168C6
:101440004215114301607047007000400248016876
:10145000102291430160704700700040F8B50126EA
:101460005E490746F602002035015B4B5B4A40317E
:10147000102F6ED011DC012F6FD0022F6BD0042FF4
:101480006AD0082F1CD1C96803242403214073D0DB
:10149000BD026C10A94274D097E0514C202F03D0AC
:1014A000402F2FD0B7420BD10B69096903263604B0
:1014B000012731403F04B94203D1990559E028463C
:1014C000F8BD01256D04A94203D19907F8D5454817
:1014D000F8BDB142FCD111688903F9D51168032028
:1014E0000005014001200005091A09D0091A05D09C
:1014F000814201D13C48F8BD2046F8BD3B48F8BDCB
:101500003B48F8BDC9680125AD06294006D0A9426F
:10151000F7D191688907F4D53648F8BD116889017B
:10152000FBD5D068D1688002334D000F2D5C0802D6
:10153000810FD068491CC00306D41068C00601D5CD
:10154000204602E0184600E02C486843FEF7D0FD34
:10155000F8BD3DE001E01CE029E0CC68A407A40F41
:101560000CD0022C0DD0012C10D0032CF0D1096925
:1015700089050029A3DBEBE716E002E000F0D0F9D3
:10158000E6E711684907E3D51846E1E700F0D8F926
:10159000DEE7CC680C26344006D0082CF1D0042CB1
:1015A000F4D00C2CE3D0D3E700F0AAF9D0E7CC6854
:1015B0000327BF023C40F7D0B442E2D0012292029E
:1015C0009442E3D0BC42D2D0C2E7A142DED0BFE712
:1015D000916B4902E8D4BBE70024F40000100240FC
:1015E00000093D008890000020A1070040420F0044
:1015F00080841E00006CDC026466000800127A0021
:10160000F8B504460068614D810601D400057DD51A
:101610005E4E0027403EB06BC00004D4B06B310476
:101620000843B06301275A480168C90511D401680D
:10163000821511430160FFF75FFC009005E0FFF7A2
:101640005BFC0099401A642844D851480068C005E2
:10165000F5D53168032000056268014010408842DA
:1016600005D10323A0681B051840884208D09003C9
:10167000800F032804D13068800301D50120F8BD14
:10168000286903210904084029D00A40824202D077
:101690002278920606D4A2680A4082421FD020888F
:1016A00000051CD528692A6988430121C9040A4319
:1016B0002A612A698A432A612861C0050FD5FFF78C
:1016C0001BFC009008E0FFF717FC0099411A314815
:1016D000814201D90320F8BD28698005F3D56168EE
:1016E0008803800F032805D132680005824301403A
:1016F0000A433260286903226168120411400843DA
:101700002861002F06D0B16B012000E002E0000745
:101710008143B1632078C00705D0E868E16880089C
:1017200080000843E8602078800705D5E8680C2130
:10173000884321690843E8602078400706D5E868B7
:1017400003218902884361690843E8602078000723
:1017500006D5E868032109038843A1690843E860C6
:101760002078400606D5E868012189068843216A69
:101770000843E8602078000606D5E868032189045C
:101780008843E1690843E8600020F8BD401002404A
:101790000070004088130000F8B5054653480E4617
:1017A0000068C007C00FB0420AD25048016849081B
:1017B0004900314301600068C007C00FB0426FD1DB
:1017C00028784B4C800705D5E068F0218843A9684C
:1017D0000843E0602878C00752D06868022817D014
:1017E000032818D02168012818D08905002957DA64
:1017F000E168890889000143E160FFF77DFB6968C2
:101800000746022912D003291CD0012926D033E033
:1018100021688903EAE721688901E7E74907E5E7E5
:10182000FFF76AFBC11B3348814223D8E0680007F9
:10183000800F0228F4D123E0FFF75EFBC11B2D4887
:10184000814217D8E0680007800F0328F4D117E021
:10185000FFF752FBC11B274881420BD8E068000705
:10186000800F0128F4D10BE0FFF746FBC11B214894
:10187000814201D90320F8BDE0680007800FF3D151
:101880001A480168C907C90FB1420BD90168490854
:101890004900314301600068C007C00FB04201D069
:1018A0000120F8BD2878400706D5E0680721090225
:1018B0008843E9680843E0602878000707D5E068B6
:1018C0000721C90288432969C9000843E06000F084
:1018D00037F8E168084A0906090F515CC840074912
:1018E00008600320FFF76EFD0020F8BD00200240D5
:1018F0000010024088130000546600081C000020FD
:10190000044805490068C968044A4905490F515C03
:10191000C84070471C000020001002406D6600089F
:10192000044805490068C968044A8904490F515CA4
:10193000C84070471C000020001002406D6600087F
:1019400010B5184AD1680C20084004280BD008288C
:1019500010D00C2810D050680004410F0120C003A3
:10196000491C884010BD1068C00601D50E4810BD46
:101970000E4810BD0E4810BD88020E4B000F185CBB
:101980000902D368890F491CDB0301D5084A05E029
:101990001268D20601D5044A00E0044A5043FEF71B
:1019A000A7FB10BD0010024000093D000024F40018
:1019B00000127A0064660008F8B504460078FF4D0E
:1019C000C0074CD0E8680007800F022807D0E868FD
:1019D0000007800F032809D1E868C00306D52868EE
:1019E00080033CD56068002875D038E0012062682B
:1019F0000004824203D129680143296011E00523D4
:101A000001211B0489049A422A6802D10A432A60F0
:101A1000F1E782432A602A680240009228688843DE
:101A20002860606800280DD0FFF766FA0646E44F8C
:101A300004E0FFF761FA801BB8427DD82868800374
:101A4000F7D50CE0FFF758FA0646DD4F04E0FFF744
:101A500053FA801BB842F0D828688003F7D4207866
:101A6000800741D5E8681F270007800F3F02012843
:101A700007D0E8680007800F032809D1E868C00391
:101A800006D42868400717D5E068012823D113E061
:101A9000E068002817D02968092291430143296092
:101AA000FFF72AFA064604E0FFF726FA801B022811
:101AB000C3D828684007F7D568682169B843090288
:101AC0000843686010E02868400840002860FFF77D
:101AD00013FA064605E090E0FFF70EFA801B022895
:101AE000ABD828684007F7D42078C00676D5E868D8
:101AF000B44E0007800F0BD0E06900285DD0286845
:101B0000FF21013108432860FFF7F6F9074644E05A
:101B10002868800502D5E06900286ED0606A69688F
:101B20003140884212D901F0BDFF0028AED168686B
:101B3000616AB043084300E0E4E068606868218CB3
:101B40000002000A0906084368600FE06968B143B3
:101B5000014369606868218C0002000A0906084395
:101B60006860606A01F09EFF00288FD1606A410BB7
:101B70000120C003491C8840E968934A0906090FFF
:101B8000515CC840914908600320FFF71BFC25E029
:101B9000FFF7B2F9C01B02288AD828688005F7D55C
:101BA0006868616AB043084368606868218C000215
:101BB000000A09060843686010E02968FF20013028
:101BC00081432960FFF798F9064604E0FFF794F98E
:101BD000801B022884D828688005F7D420787C4EA2
:101BE000000723D560690028306910D0012108431F
:101BF0003061FFF781F9074605E009E1FFF77CF95D
:101C0000C01B02287ED830698007F7D50EE0400857
:101C100040003061FFF770F9074604E0FFF76CF908
:101C2000C01B02286ED830698007F7D4207840079F
:101C300061D5A86B0027C00005D4A86B0121090756
:101C40000843A863012763480168C90511D40168E6
:101C5000821511430160FFF74FF9009005E0FFF78F
:101C60004BF90099401A64284CD85A480068C005BE
:101C7000F5D5FF20A2680130824203D131690143CA
:101C8000316111E001218902002A07D005231B02DE
:101C90009A4203D132690A433261EFE732698243E3
:101CA0003261306988433061A06800280ED0FFF7A8
:101CB00023F9009006E0FFF71FF90099411A404808
:101CC00081421FD830698005F5D50DE0FFF714F982
:101CD000009006E0FFF710F90099411A3848814258
:101CE00010D830698005F5D4002F04D0A96B0120ED
:101CF00000078143A9632078800630D53649A06962
:101D00004A1400E07DE0002816D0AB6801200343B0
:101D1000AB606B6B03436B63086A10430862FFF7A9
:101D2000EBF8064604E0FFF7E7F8801B022868D8C6
:101D3000A8688007F7D512E0A86840084000A860AE
:101D4000086A90430862FFF7D7F8064604E0FFF7F9
:101D5000D3F8801B022854D8A8688007F7D4A06A5B
:101D6000002853D0E9680907890F032950D00126BC
:101D700036060228286805D0B0432860FFF7BCF873
:101D8000044640E0B0432860FFF7B6F8074604E099
:101D9000FFF7B2F8C01B022833D828688001F7D4B7
:101DA000216BE06AEA680843616BFD231B049A43D8
:101DB00011430843E860286830430FE000100240F8
:101DC0008813000000E00000546600081C0000209A
:101DD0004010024000700040000001402860FFF702
:101DE0008BF8044604E0FFF787F8001B022808D8A8
:101DF00028688001F7D509E0FFF77EF8001B02286C
:101E000001D90320F8BD28688001F5D40020F8BD71
:101E10000120F8BD704730B5014620310A78012A0B
:101E200015D001220A7002234B700468CA23636232
:101E300004685323636203689C6820252C439C60DC
:101E40000068FF2343624A700020087030BD022002
:101E500030BD10B503F02AF910BD000070B504467E
:101E6000006881688025C90400290BDAC068C005B4
:101E700008D52046FFF7EDFF2168C8682840FF38E5
:101E80008238C8602068816889040BD5C0688005E5
:101E900008D52046FFF7BEFF2068C168054A2940E3
:101EA0008918C160012004494004486101202034A0
:101EB000607070BD7FFDFFFF00040140F8B505466E
:101EC00004462035287801281DD0012028700220E2
:101ED00068702268CA205062226853205062FF2036
:101EE00001300026FF2781421CD121688A68824385
:101EF0008A60206881680122120391438160FEF7A5
:101F0000FBFF009009E00220F8BDFEF7F5FF009905
:101F1000411A7D20C00081421BD82068C068C007DC
:101F2000F3D020E020688168012252029143816051
:101F300020688168120191438160FEF7DDFF009007
:101F40000DE0FEF7D9FF0099411A7D20C0008142C3
:101F500005D920684762032068702E70F8BD20689C
:101F6000C0688007EDD520684762012068702E7038
:101F70000020F8BD10B500680B464068C021C94379
:101F800001400002000ECC04D870E40E5C708C0698
:101F9000A40E0904490F9C701970002A0AD101F09F
:101FA000BAFDD870587801F0B6FD5870987801F0F5
:101FB000B2FD9870002010BD30B50B460168896AEB
:101FC0005960016809694904490C9960006804680E
:101FD0000F482146014088024D04800E18706D0E96
:101FE00049065D70490E99706102490E40242140F6
:101FF000D970002A0AD101F08EFD1870587801F0CE
:102000008AFD5870987801F086FD9870002030BDE8
:102010007F7F7F0070B5040005D0254620356878A5
:10202000002802D006E0012070BD00202870204664
:1020300000F042F8022068702168CA2048622168D6
:1020400053204862204601F079FDFF2100282068D6
:1020500003D0416204206870E5E78268154B1A409E
:102060008260226890686368A669184323693343D5
:10207000184390602268E068106120680269238933
:102080001B041A4302612068C26880239A43C2601D
:102090002068C26C92089200C264E26960690243DF
:1020A0002068C36C1A43C2642068416201206870D2
:1020B000002070BDBFFF8FFF00B597B004200090D7
:1020C00000200A90FF20013002906846FFF774FC60
:1020D000002801D0FEF7E4FB20200E90C0020F90F4
:1020E0000EA8FFF78DFA002801D0FEF7D9FB0848AB
:1020F000016901229204114301610022114602206C
:10210000FFF790F90220FFF779F917B000BD000042
:1021100040100240FEB506460446203630780B4695
:10212000012842D0012030700220707020681D46C6
:10213000002720358068002A39D0400655D5187808
:1021400001F0E9FC287801F0E6FC19789878090498
:1021500008435978DA7809021204114308432978B0
:1021600009060843D969084359690843054699692E
:102170005868084300902168CA20486221685320AB
:102180004862FF205A6A0130802182424AD1226887
:102190009368834393602268D0680840FF38823890
:1021A000D060FEF7A9FE019029E00220FEBD4006A6
:1021B00000D4DF70187801F0B6FC0204587801F002
:1021C000B2FC00020243987801F0ADFC0243D878DB
:1021D00000040243287801F0A6FC00060243D869F7
:1021E0000243586902431546C1E7DF70AAE7FEF7CC
:1021F00083FE0199411A7D20C00081422AD82068BF
:10220000C068C007F3D02068C561216800984864A1
:1022100020688168FF220132114381602068816853
:10222000120130E02068826801235B029A438260D9
:102230002068C2680A401D495118C160FEF75CFE63
:1022400001900EE0FEF758FE0199411A7D20C00072
:10225000814206D92168FF204862032070703770E0
:10226000FEBD2068C0688007ECD520680562216843
:1022700000988864206881680122520211438160BD
:1022800020688168120111438160094802680121B8
:1022900049040A43026082680A4382602168FF2081
:1022A00048620120707037700020FEBD7FFDFFFF87
:1022B00000040140F8B505460446203528780B4651
:1022C000012815D001202870022068705878002A53
:1022D00010D001F020FC987801F01DFCD8789E7891
:1022E000000406435878197800024903084316E0B1
:1022F0000220F8BDC10603D5EF2108400A3058700E
:10230000D87801F010FC0604587801F00CFC0002AB
:102310000643987801F007FC06431878400306430B
:102320002168CA204862216853204862204601F093
:1023300005FC0027002811D110480640206846609F
:102340002068C16880229143C1602068806880064F
:102350000CD4204600F08CF8002807D02168FF201C
:102360004862042068702F700120F8BD2168FF20AA
:102370004862012068702F700020F8BD3FFFFF0009
:10238000F8B506460446203630780D4601280ED0B2
:102390000120307002207070206800278068002AB9
:1023A00007D040061AD5287801F0B5FB17E00220C7
:1023B000F8BD400600D4EF70287801F0B4FB0204A9
:1023C000687801F0B0FB00020243A87801F0ABFB93
:1023D0000243E8780004024300920BE0EF70297892
:1023E000A878090408436978EA78090212041143BD
:1023F000084300902168CA2048622168532048623F
:10240000204601F09BFB00281FD118490098084086
:1024100021680860206881680122920491438160EC
:102420002969E868084321688A6810438860206841
:10243000C16880229143C1602068806880060CD406
:10244000204600F015F8002807D02168FF204862D8
:102450000420707037700120F8BD2168FF204862A9
:102460000120707037700020F8BD00007F7F7F0072
:1024700070B504460068C168A0229143C160FEF7B0
:102480003BFD7D260546F60006E0FEF735FD401BC8
:10249000B04201D9032070BD2068C0688006F4D521
:1024A000002070BD70B5040006D025464035687C1C
:1024B0000026002802D005E0012070BD2E742046C1
:1024C00000F032F8022068742068016840229143CD
:1024D0000160A168606822690843E168114308430C
:1024E000616901220843A169520211400843E16970
:1024F0000843216A0843A16A084321680860A0696B
:102500000421000C0840616A084321684860216882
:10251000E06A08612068C16992009143C161666503
:1025200001206874002070BD7047F8B5044600278C
:102530006846078026464036707C012802D0707CB1
:1025400022287ED100290CD0002A0AD0002B08D0E6
:10255000307C012875D001203074707C012802D0B5
:1025600003E00120F8BD322070746765A263A38781
:10257000E3872163A386E386A764E7640125A06A55
:102580006D03A84207D120680168A9430160206853
:1025900001682943016020680168490603D4016885
:1025A0004022114301600121FF20E268C902053089
:1025B0008A42616866D1002904D081420CD1E08E44
:1025C000012809D1206B21680088C860206B801C1D
:1025D0002063E08E401EE086E08E002843D1A06A92
:1025E000A84246D12068016801221203114301600C
:1025F0003FE02068C068A16B0880A06B801CA063CE
:10260000B0E0002202212046069B01F0B7FA002824
:102610007DD1206B21680088C860206B801C2063FE
:10262000E08E401EE086E08E002808D1A06AA84215
:1026300005D12068016801221203114301600022C4
:1026400000E0CCE001212046069B01F097FA00282B
:102650007FD12068C068A16B0880A06B801CA0633C
:10266000E08F401EE087E08E0028CAD16068002815
:102670007BD1002201212046069B01F07FFA002831
:1026800067D1B6E7002904D081420BD1E08E012842
:1026900008D1206B411C216321680078C860E08E5E
:1026A000401EE086E08E002845D1A06AA84205D1F0
:1026B00020680168012212031143016000220121F8
:1026C0002046069B01F05AFA002842D12068C068D3
:1026D000A16B087046E0002202212046069B01F013
:1026E0004DFA002835D1206B411C21632168007808
:1026F000C860E08E401EE086E08E00280AD1A06A05
:10270000A84207D1206802680121090300E020E007
:102710000A430260002201212046069B01F02EFAA6
:10272000002816D12068C268A06B411CA16302700A
:10273000E08F401EE087E08E0028CCD16068002842
:1027400013D1002201212046069B01F017FA002830
:1027500002D00320F8BD08E02068C168A06B421CCD
:10276000A2630170E08F401EE087A06AA8420FD1EB
:10277000002201212046069B01F000FA002802D029
:10278000606D02210EE02068C068694608800888F4
:10279000012280212046069B01F0F0F9002804D098
:1027A000606D202108436065D3E701207074A06A42
:1027B000A84211D120688168C943C9060CD4616D53
:1027C0000222114361650168A94301602068016824
:1027D000294301603774C4E637740020BAE7022049
:1027E000B8E7704770B5040005D025466035687AB3
:1027F000002802D006E0012070BD0020287220468B
:1028000000F026F824206872206801684908490011
:102810000160606A002802D0204602F013FD2046C5
:1028200002F008FE0128E7D0206841680922D202A0
:1028300091434160206881682A2291438160206829
:102840000168012211430160204602F061FD70BD64
:1028500070B586B0064614216846FDF7A8FC1A49F3
:10286000886B0122920410438863CA6A02200243E3
:10287000CA62C96A019001400591032003210390B7
:1028800089020420002500910490029569460F48B2
:10289000FEF770FA0F4C0E482060A5600520E56039
:1028A00060606561A5618020E5612061032000030F
:1028B00020622046FEF7A2F9002801D0FDF7F0FFC4
:1028C0007466A66206B070BD00100240000400509D
:1028D000300002408C030020F8B505460446603500
:1028E000A87A202841D100290BD0002A09D0012341
:1028F000A0681B03984206D12069002803D1C807AD
:1029000001D00120F8BD287A01282ED0012028729C
:102910005820616502530026E6662220A872616E87
:102920001348C862616E13480863616E12484863B9
:10293000606E13468663676D21683A462431606E87
:10294000FEF7E0F92E7220680168FF220132114380
:1029500001602068816801221143816020688168DC
:102960004022114381600020F8BD0220F8BD000024
:10297000BB530008FB530008715300087CB539496C
:1029800088426DD1384842790121384B002A16D04F
:10299000002242716C469D5CA554521CD2B2062A9C
:1029A000F9D3234622786479A24254D14C2A41D0EB
:1029B0004D2A0DD04E2A1DD0542A4CD12AE01A7827
:1029C000242A01D0017046E041718171062243E062
:1029D000254B28331A706A46D278DA706A465278E4
:1029E0005A706A4692789A706A4612791A715C71C6
:1029F000417230E05D781C4B2E335D706D46AD78D2
:102A00009D701A706D46EA78DA702A791A715C71D5
:102A1000417020E05D78144B16335D706D46AD78E3
:102A20009D701A706D46EA78DA702A791A715C71B5
:102A3000C17110E00C4B1C331A706A4652785A7000
:102A40006A4692789A706A46D278DA706A46127943
:102A50001A715C710172012204490248FFF73CFFC0
:102A60007CBD00001C03002028000020380400204A
:102A70007047FFB5064604466036707A83B00D464F
:102A8000202858D1002D0CD00598002809D001200D
:102A9000A1680003814207D12069002804D1E8071A
:102AA00002D0012007B0F0BD307A012843D00120C8
:102AB00030720020E06621207072FEF71DFA01904E
:102AC00027464037059838820598788218E0788A3A
:102AD000401E788206980090002280212046019BAB
:102AE00002F0B6FD002818D10120A1680003814240
:102AF00002D12069002812D02168287888626D1CD4
:102B0000788A0028E3D106980090002240212046D0
:102B1000019B02F09DFD002808D00320C2E7288811
:102B20002168C005C00D8862AD1CE9E720207072E5
:102B300000203072B6E70220B4E700000146002012
:102B40000A0A00D00820084A114201D0042210438A
:102B5000064A114201D002221043054A114201D017
:102B60000121084370470000F0F00000CCCC0000C9
:102B7000AAAA000038B50B231B07C518114B0FD0AC
:102B80001C152D1B18D02D1B19D0A542DD6A05D1AF
:102B900008242543DD62DB6A234007E08024F8E750
:102BA000DC6A01252C43DC62DB6A2B400093116058
:102BB0001146FEF7DFF838BDDD6A0224E9E7DD6A79
:102BC0000424E6E70010024010B5FFF7B7FF8100CC
:102BD00002484058002800D0804710BD1C02002049
:102BE00070B51C4615460E460846FFF7A7FF002C99
:102BF0000DD0074980000C50304600F0C1FE04465D
:102C000000222946FEF70EFC2046FEF7F7FB70BDBA
:102C10001C02002010B5D2B2FEF768F910BD00000A
:102C200010B5074C6078002808D106480068804736
:102C300000F0CEF900F09AF80120607010BD00009D
:102C40006C0000200C65000870B5410EC0017D22AB
:102C50000023FDF763FA054600F080F8044600E023
:102C600000BF00F07BF8001BA842F9D370BD000044
:102C7000F8B5064600240D4622462748FFF79CF982
:102C80000022314624486F68FFF774F90022294674
:102C90002148FFF791F96868B842F1D100201F4A36
:102CA0001F4BF17803E087070AD0E418401C8142EB
:102CB000F9D8880706D0707800211A4A401E14E01F
:102CC000A418F3E7174A707800210C32401E04E084
:102CD000535C154F7B431C19491C8842F8D806E009
:102CE000535C114F7B431C19491C8842F8D8687803
:102CF000A9783C2250430A182878E1210901484369
:102D0000B178094B594340181018084A69680019EE
:102D10008002511A4018F8BD5C0200200085E201D3
:102D20008033E1017566000880510100FF03000057
:102D3000032070470148006870470000A802002087
:102D400000B587B0694605A8FFF792FF02490968F8
:102D500007B0401A00BD0000A802002000B587B0EF
:102D6000694605A8FFF784FF07B000BD10B5084C01
:102D7000207800280AD100F03BF8FF2101310548F6
:102D8000FFF79CF800F064F80120207010BD0000EF
:102D9000240000205C02002010B5012000F0DEFDC0
:102DA0000148FFF75BF810BD5C02002070B50446D7
:102DB000FFF7C6FF211A0D4D0220285EC01C81427C
:102DC00003D9012000F0CAFD02E0012000F0BAFDA5
:102DD00000F0D0FD002805D1012000F0BFFD022049
:102DE000285E241A204600F03FF870BD2400002021
:102DF00010B51449144886B0002412C01F21016088
:102E0000846004611149446141600838FFF702F9A8
:102E100010206946C875012048758875087500221C
:102E200005A90948FFF746FA00940194049400228A
:102E3000694605480394FFF7A3FA0348FEF7EBFF42
:102E400006B010BD002800405C020020FF03000017
:102E500010B5044C2046211D1830FFF709FF2060F3
:102E600010BD0000A8020020F0B587B0044614226F
:102E70003F4901A8FDF782F93D485038406E009067
:102E800000F07EF83B4802993B4A401AA105890DA3
:102E9000081887B2A10A68468078534202E0891870
:102EA000401C80B29942FAD26A461579E122120199
:102EB00002E0891A6D1CADB29142FAD26A46547989
:102EC00002E0641CA4B23C393C29FAD29279511830
:102ED0008EB20121890203E07A1A761C97B2B6B24B
:102EE0008F42F9D203E03C3E641CB6B2A4B23C2E41
:102EF000F9D203E03C3C6D1CA4B2ADB23C2CF9D23B
:102F000003E0183D401CADB280B2182DF9D26946DD
:102F1000C978890769464A7827D01849491E515C03
:102F2000814202D2FDF7E4F808461249CA1B104953
:102F30002C394A60052252068A618E704C700A460E
:102F40000D70203210706846C079C8700020C861CA
:102F5000FF2248610132C8604A62086102460846A1
:102F60002438FFF7D7F807B0F0BD04490C31D5E796
:102F7000AC020020FF03000080AEFEFF7566000873
:102F800010B506480168C86880221040FF388238B2
:102F9000C86051000148FEF791FF10BD5C0200209F
:102FA00010B5410EC0017D220023FDF7B7F810BD1A
:102FB00001B582B00020C0430090012301AA02A9FC
:102FC0000248FFF7B2FA684680880EBDC4020020AE
:102FD00030B585B014216846FDF7E9F82E482D4933
:102FE00001602F4A2D4B0021126803E05208491C52
:102FF000072901D29A42F9D84A078B07D20FDB0F73
:1030000052011B011A43C90700D008210024846023
:1030100004610A434461FF21C46005318462416058
:10302000012149020346183316C344621D48416B0F
:103030008514294341631848FFF734FA002801D06A
:10304000FDF72EFC02200190029004940320164C00
:1030500003906A4608212046FFF78CFD6A4610213E
:103060002046FFF787FD052424076A4629462046A7
:10307000FFF780FD01210191CD0302916A462946A7
:103080002046FFF777FD012229462046FFF7C2FDC3
:1030900005B030BD00300140C40200208096980089
:1030A0001C000020001002400004005002A002F0AA
:1030B00005FB00BFFAE70000484152444641554C29
:1030C000540D0A0010B50648006880694005400F9D
:1030D000034802D0FDF761FF10BDFDF78AFF10BD68
:1030E000CC03002010B5806A01684A680123DB0325
:1030F0001A434A60826B00219163C26B916301465F
:1031000040314A78602A02D0FDF77BFF10BD2022B3
:103110004A70FDF740FF10BDF0B503460022CE0710
:1031200040332824B025002E05D05E784222274661
:10313000B74300D0F2228E0705D544265B78324390
:103140009C4300D02A434B0701D5B8231A431123CF
:103150008B4301D190231A4312238B4301D1602169
:103160000A4300680168914301600020F0BD00003F
:1031700070B5164D1223446B002220268B43AC42BF
:1031800002D0134DAC420DD14C0700D5B82211240A
:103190008C4301D190210A43002B11D132434021AD
:1031A0000A430DE04C0700D5B822CC0701D0F22429
:1031B0002243890701D5F4210A43002B00D1324371
:1031C0000068016811430160002070BDB735000838
:1031D000A137000801688A69D243920701D400220E
:1031E0008A6200688169C943C90703D081690122E5
:1031F000114381617047F8B505460446403568784B
:1032000028218143206804D00821C1610020287052
:10321000F8BD8169C903CF0F8169FE230E0C816857
:103220001E408A05C168920D19408C46E16802294A
:1032300012D10621D3090E400B409E420BD1A16C46
:10324000491CA164A16C0229E2D10021A1640823D8
:10325000C361297007E0664604212046FFF75CFF42
:1032600000202870324639462046FDF795FEF8BD0D
:10327000F8B50026054640350446AE702C48E0629D
:103280006685606C0843606468782027282823D00E
:103290006878292820D068782A281DD00721204660
:1032A000FFF73AFF6878602800D06F702663666386
:1032B000206801684A041F49026817D501239B034F
:1032C0009A430260A06B81632E70A06BFDF70AFB2E
:1032D00000281DD0A06B19E003212046FFF71CFF3A
:1032E00028206870266314486063E1E7120410D553
:1032F00002680123DB039A430260E06B81632E7056
:10330000E06BFDF7EFFA002802D0E06B816B884795
:10331000F8BD6878602804D02E702046FDF771FE55
:10332000F8BD6F702E702046FDF735FEF8BD000029
:103330000000FFFFE53000080938000870B50446BA
:103340001548E062002525632022204640300646CD
:10335000427085706563480711D52068416A606ACC
:10336000421C62620170208D002808D0401E20851A
:10337000608D401E6085606C0421084360640721F5
:103380002046FFF7C9FE21681020C861357020462D
:10339000FDF792FE70BD00000000FFFFF8B5064685
:1033A00000682027C76130684268224B1A4042609B
:1033B0000025356320487563F062C80606D531687C
:1033C0001020C861706C0421084370643046FFF718
:1033D00001FF03213046FFF79FFE706C002814D1D7
:1033E00034464034607860280FD06078212811D0AE
:1033F0006078222808D16770A078A57040282570D1
:10340000304614D0FDF75AFEF8BD716C3046FFF718
:103410002FFFF8BD6770A078A57040282570304652
:1034200002D0FDF787FEF8BDFDF783FFF8BDFDF77D
:103430007FFFF8BD00E800FE0000FFFF70B500252B
:10344000064640360446B5707178202021297070F8
:103450000BD012202063022120466563FFF75CFE3B
:1034600035702046FDF72AFE70BD11202063012132
:1034700020466563FFF750FE35702046FDF75AFE83
:1034800070BD0000F8B50446006820260F46C661EE
:1034900021680820C86107212046FFF73DFE20680B
:1034A0004168B20211434160206841682D4A1140D1
:1034B00041602046FFF78EFE2068016825464904DA
:1034C0004035002902DB0168090406D56978212905
:1034D0002FD0E16B096849686185628D0421002A5B
:1034E00002D0626C0A4362647A070FD5426A606A4E
:1034F000431C63620270208D002807D0401E208587
:10350000608D401E6085606C08436064002020630D
:10351000A8706063616C00290DD0616C2046FFF7D4
:10352000A7FE6878282803D139462046FFF706FF12
:10353000F8BDA16BCEE7E26A0B498A4206D0E16290
:103540006E7028702046FDF7B7FDF8BD69786E7083
:1035500022292870204602D0FDF71BFFF8BDFDF799
:1035600017FFF8BD00E800FE0000FFFF70B5002661
:10357000044640340546A6706178282029290ED0DB
:1035800061782A290AD16070222028630221284606
:10359000FFF7C2FD26702846FDF7FAFE70BD607089
:1035A0002120286301212846FFF7B6FD2670284612
:1035B000FDF7EFFE70BDF8B50546044640352878A6
:1035C000012816D001202870C8060026002812DA2B
:1035D000D00610D521681020C861606C0421084312
:1035E000606412212046FFF7C3FD2046FFF7F2FD7D
:1035F0003FE00220F8BD080634D5500632D52068D9
:103600000168402291430160608D002825D0206828
:1036100040688105608D890DFF2803D9FF20208532
:10362000930403E0608D012320855B060096208DC6
:10363000C2B2204600F074F9608D218D401A608579
:10364000687822282068016804D00122920311437F
:1036500001600EE00122D203F9E740212046FFF786
:1036600007FE06E0880604D5900602D52046FFF73F
:1036700095FE2E700020F8BDF8B507460446403789
:10368000387815460E46012810D001203870F00613
:103690000ED5E8060CD521681020C861606C0421A5
:1036A000084360642046FFF795FD5BE00220F8BD0B
:1036B000700708D5680706D52068416A606A421C11
:1036C0006262017009E0B0070ED5A8070CD5606AE8
:1036D000411C6162216800788862208D401E20852F
:1036E000608D401E60853DE02C4A30062FD568066F
:1036F0002DD5208D002825D1608D002822D020686E
:1037000040688105608D890DFF2806D9FF220020C1
:10371000228501231B06009010E0608D2085E06A61
:10372000904205D000200090E36A208DC2B205E0EF
:1037300000200090208D0123C2B25B06204600F0DD
:10374000EFF80FE020684068800123D506E070069E
:1037500008D5680606D5608D00280ED04021204689
:10376000FFF786FDB00605D5A80603D531462046ED
:10377000FFF714FE00203870F8BD20684168890109
:10378000F0D4E16A914205D14168012292031143CC
:103790004160E7E72046FFF751FEE3E70000FFFF47
:1037A00010B5044640342378012B15D00123237033
:1037B000CB0618D5D30616D5617821290ED0C16B5A
:1037C00009684968102200290AD00168CA61416C61
:1037D00004221143416414E0022010BD816BEFE725
:1037E0000068C2610DE00B0705D5130703D500681B
:1037F0000821C16105E08B0603D5920601D5FFF7CC
:1038000041FE0020207010BDF8B505460446403545
:10381000287816460F46012811D0012028703F490C
:10382000F8062DD5F0062BD5628D1020002A08D081
:103830002168C861606C04210843606462E0022072
:10384000F8BDE36A01225206934202D0E36A934232
:1038500002D16A78282A08D0E26A8A4202D06978BE
:10386000292907D02168C8614CE039462046FFF776
:1038700065FD47E02168C8612046FFF7ABFC3EE0EC
:10388000780717D5700715D5608D00280BD02068F4
:10389000426A606A431C63620270208D401E20856C
:1038A000608D401E6085608D00282BD1E06A8842C3
:1038B00025D127E0380706D5300704D539462046FC
:1038C000FFF799FC1EE0B8071CD5B0071AD5608D2C
:1038D00000280CD0606A411C61622168007888620F
:1038E000608D401E6085208D401E20850AE0E06AC4
:1038F00001210906884202D0E06A002802D1204650
:10390000FFF734FEB80605D5B00603D53946204684
:10391000FFF7B8FD00202870F8BD00000000FFFF91
:1039200070B50568049C68688905890D1204044E09
:1039300011431943304021430143696070BD0000C9
:10394000009800FCEFF3108172B6034A136803433A
:1039500081F310881360704774000020EFF310812A
:1039600072B6034A1368834381F31088136070476B
:1039700074000020014800687047000074000020B7
:10398000FF220132811A90420CD009DC08280DD0A8
:1039900008DC012808D0022806D0042802D105E05E
:1039A0000F2212020720704705207047062070473B
:1039B00010B5144812490160E121C900416000219D
:1039C00081600161416181610122C161C260016266
:1039D000FDF718FB002801D0FCF762FF0021094821
:1039E000FDF790FA002801D0FCF75AFF00210548A6
:1039F000FDF7ADFA002801D0FCF752FF10BD000022
:103A000000540040CC03002010B50C480A49016066
:103A1000E1214902416000218160C1600161816151
:103A20000C22016242614162FEF7DCFE002801D0F7
:103A3000FCF736FF10BD0000004800401C030020CA
:103A4000002101E0491CC9B2425C0A2AFAD1014AAC
:103A5000126B10470C650008704700008307FF22B7
:103A6000DB0E9A408907090E994000280BDA0007FF
:103A7000000F0838830808489B001818C36993434F
:103A80000B43C3617047830804489B001B181868E8
:103A9000904308431860704700ED00E000E400E048
:103AA0007047000070B517490023CA681206120F4C
:103AB00018D18A6B154CD500134A02D512682240E2
:103AC00009E08E6B01252D072E438E6312688E6BE5
:103AD0002240AE438E63A24204D10321890388426F
:103AE00000D101230A4801684908490019430160CF
:103AF0000068C007C00F984201D0012070BD0020AF
:103B000070BD00000010024000700040001800006E
:103B100000200240704701090A2200075143000FAC
:103B20004018C0B27047002102E00A38C0B2491CF8
:103B30000A28FAD20907090E0843704770B50446EF
:103B40000068C168490613D40021C943C160FDF76C
:103B5000D3F97D260546F60006E0FDF7CDF9401BBA
:103B6000B04201D9032070BD2068C0684006F4D57A
:103B7000002070BD10B5FFF70FF910BDF8B51D4658
:103B800016460F460446FDF7B7F93146264640363D
:103B9000009000291ED043E0681C1BD0002D05D0EA
:103BA000FDF7AAF90099401AA84213D92068416884
:103BB000E022914341602068026840218A4302600C
:103BC00023E021680A6882430A6021680A68024388
:103BD0000A601FE02068816838468843DCD124E011
:103BE000681C1DD0002D06D0FDF786F9014600980F
:103BF000081AA84214D920684268E0218A4342602A
:103C0000206801684022914301600120A16A4003BD
:103C10008142D6D001207074002030740320F8BD9A
:103C20002068816838468843DAD00020F8BD7047A4
:103C30000120704701480079704700008001002092
:103C4000F3B5034600206E4A8DB00146002B02D02A
:103C5000012B48D14FE06A48C069FCF76FFC029124
:103C60000C900E98FCF76AFC06460F46302000F0D8
:103C700028FC4007800F02D00024624D01E00024A0
:103C80002546272000F01DFC5D494007400F098CA8
:103C9000401C4018FCF752FC594A20320792927897
:103CA000012A21D00022574BFCF78CFA22462B46E2
:103CB000FCF788FA32463B46FCF784FA079A1279F9
:103CC000012A14D000221346FCF77CFA0322FCF7E9
:103CD0000BFC029B0C9AFCF78FFB00224A4BFCF773
:103CE00023FB02F05DFB86E000221346DCE70022A6
:103CF00001239B07E8E70024106C2546002804D028
:103D0000012805D0022808D105E000243F4D04E039
:103D100000243F4D01E03F4D0024576C0120B84086
:103D2000FCF7F8FB02460B4620462946FCF764FBED
:103D300002460B4600203349FCF75EFB304E04463A
:103D400040360D467089FCF7F9FB0022324BFCF738
:103D500039FA22462B46FCF7E7FA09910890707A67
:103D6000001DFCF7EBFB06900791B8000290317A3A
:103D7000002900D00221401AFCF7E0FB04900E98C5
:103D80000F46C1000298081AB17B09014018317B27
:103D9000002900D01421401A1C30FCF7CFFB3B4611
:103DA000049AFCF729FB02F03BF9079B069AFCF703
:103DB000BBFA002207460E461346FCF7EBFB02D285
:103DC0003846314601E0002001460022134BFCF743
:103DD000F9F922462B46FCF7A7FA099B089AFCF74B
:103DE000F1F90022084BFCF79FFA0D4A0D4BFCF746
:103DF000E9F902F079F9FCF7AFFB0FB0F0BD000074
:103E0000800100200000F03F00408F408084FE4091
:103E100080840E4180841E4100001140000020403B
:103E20002B8716D9CEF7EF3F70B5194908601949AD
:103E3000194801F025F918481649143001F020F905
:103E400015481449283001F01BF900F07DFB0020D3
:103E500000F0AEFC0E48001D00F07EF80F4D00246F
:103E600060002618A85D00F073FC70198178407816
:103E700001F064F8641CE4B2112CF1D3002000F0CE
:103E800067FC0549002060390871022070BD000000
:103E90000000002001440008E001002070650008D7
:103EA00010B586B014216846FCF781F90D480190E1
:103EB00002200524240702906A4604212046FEF7CA
:103EC00059FE6A4608212046FEF754FE6A46202124
:103ED0002046FEF74FFE6A4640212046FEF74AFE86
:103EE00006B010BD0000111030B585B01421684631
:103EF000FCF75DF9164801900220052503242D07E3
:103F000002906A46042103942846FEF733FE6A466F
:103F100008212846FEF72EFE6A4620212846FEF795
:103F200029FE6A4640212846FEF724FE0120019022
:103F3000002002906A46102103942846FEF71AFEDC
:103F4000FF216A4601310348FEF714FE05B030BD7B
:103F5000000011100004005070B5052504462D071F
:103F60000368002204212846FEF73AFE00220821B9
:103F700028466368FEF734FE002220212846A36805
:103F8000FEF72EFE002240212846E368FEF728FEB9
:103F900070BD70B514460E46054600F0D9FB30469C
:103FA00000F096FB052000F003FC0120FCF735FC37
:103FB000284600F0B6FA054600F0F0FDA54201DD06
:103FC000002070BD012070BDF8B500256846057061
:103FD000834C2079012809D0022857D1204660302F
:103FE00001F000F9607901287ED1E8E060790028CD
:103FF00018D001284AD14021122000F09FFF122042
:1040000000F05FFA694608700878754E8006403601
:1040100000286ADA2021122000F090FFB07C0028EE
:1040200076D083E06E4E20363079012835D13F209E
:1040300000F047FA69460870087880072DD40B21F4
:104040003E2000F07BFF10213F2000F077FF30463C
:10405000543001F0C7F8B079002818D00D2000F0D6
:1040600030FA402101430D2000F068FF30466830EF
:1040700001F080F85B480068002803D00069002840
:1040800000D08047357375732587E586F8BD5448A1
:10409000883001F0A7F82571ECE7E18E524F002936
:1040A0000AD1208F002807D1B078002831D03220E3
:1040B00000F007FAE086E18E208F091AC9B2C01914
:1040C00000F028FAE08E20874548743001F08AF825
:1040D000B079002823D00D2000F0F3F940210143EE
:1040E0000D2000F02BFF01E06DE02CE03C48883013
:1040F00001F040F83B4800680028C3D08768002FD3
:10410000C0D00E22B256E18E00233748B847B9E737
:104110000BE033480121363000F0FCF9CBE73048A2
:104120002571883001F05EF8E4E725712C48743081
:1041300001F058F82B4800680028A7D00069002833
:10414000A4D08047F8BD192000F0BBF940B230760A
:10415000010605D5C043401C0006800E474201E021
:104160000006870E1A2000F0ACF9002F03DA0111C7
:104170000818C01901E0011108188B38708313204A
:1041800000F09FF930770146174800F0C3F9B07C82
:10419000002800D125711248743001F023F811482D
:1041A00000680028CED08468002CCBD018231A22B7
:1041B000F356B25E317F0C48A0470CA00DE00821F9
:1041C000122000F0BBFE0748257100680028B9D016
:1041D00000680028B6D0804707A002F059F9F8BD62
:1041E0008001002000000020800000207278446FD1
:1041F0006E650A0D000000007478446F6E650A0D4C
:104200000000000070B5304C25462379E61F6A791E
:10421000E98E288FF93E2035012B11D0022B28D1B1
:10422000002A26D10A1A23461B8FE97E3046181829
:104230008A4243DD00F0A9FE208FE97E40183BE072
:10424000002A17D0012A14D11F48743000F0CAFF89
:104250008021122000F072FE002020711B480068AF
:10426000002806D0C068002803D0804718A002F0BC
:104270000FF970BD002908D1002806D1A8780028C0
:104280000FD0322000F01DF9E086E18E208F0A1A4F
:10429000A97E8A420BDD801900F03CF9208FA97EAF
:1042A000CCE709480121363000F034F9EDE7D1B20E
:1042B000801900F02FF904E0208770BDD1B200F022
:1042C00064FEE08EF8E7000080010020000000207E
:1042D000727854696D654F75740A0D0070B5294D7B
:1042E000294C294608462A7940304979C07B012A61
:1042F00004D0022A01D1002902D170BD002916D0B4
:104300000129FAD10128F8D10221122000F016FE6D
:1043100020680028F1D040690028EED01C2000F071
:10432000D0F8216880064969800E884770BD154C19
:10433000012620342673607B0028F7D120466830A0
:1043400000F050FF6673112000F0BBF840084042B7
:10435000A0731B2000F0B5F806021C2000F0B1F895
:104360000643300A0102094A711A51438031504311
:10437000090A401828630C2000F0A3F840092075B2
:1043800070BD00008001002000000020093D0000F9
:1043900010B51248407900281FD001281DD11220E5
:1043A00000F08FF80E4CC0070BD00521122000F052
:1043B000C5FD2068002810D0816900290DD001209A
:1043C0000AE00421122000F0B9FD2068002804D082
:1043D0008169002901D00020884710BD800100209C
:1043E0000000002005484079002806D1034820300D
:1043F000017B002901D10121017370478001002058
:10440000F8B51E4C002520791D4F01280AD002283E
:1044100007D125713868002803D04068002800D0F3
:104420008047F8BD6079002815D1144E0B21203645
:10443000357375732587E5863E2000F07FFD1021DA
:104440003F2000F07BFDB079012809D0304625716E
:10445000683000F0C7FE38680028E2D0C068DDE7A9
:104460000D2000F02EF8402101430D2000F066FDE4
:104470000248883000F07EFEEDE700008001002059
:104480000000002070B50025012000F061F9FF2137
:10449000112000F053FD052000F08AF900240120CE
:1044A000FCF7BBF92C2000F00CF8C007C00FA040AF
:1044B000641C0543E4B2202CF1D300F06FFB2846C6
:1044C00070BD08B50122694600F003F8684600781F
:1044D00008BDF8B50446012715460E46FF03052022
:1044E000002239460007FEF795FB6006400EFEF7F6
:1044F0005FFD002405E00020FEF75AFD3055641CE6
:10450000E4B2AC42F7D30520012239460007FEF79A
:1045100081FBF8BD0A4610B501460020FFF7D9FF20
:1045200010BD10B5002804D0012808D00020C043D9
:1045300010BD1120FFF7C5FF4008404210BD1B20F1
:10454000FFF7BFFF8B3810BD70B586B014216846E9
:10455000FBF72DFE012001900320012505260024F4
:104560006D023607039002946A4629463046FEF7EC
:1045700001FB012229463046FEF74CFB0120FCF7E7
:104580004CF96A46294630460194FEF7F3FA0620B4
:10459000FCF743F906B070BDF3B5384C06466179B7
:1045A000002081B0002902D0012964D128E0002038
:1045B00020876846314D017AE1862035A8780028A9
:1045C00009D0322000F0BAFC6846027A501E3F281B
:1045D00006D8EA760AE0012102A800F0D6FCF3E74B
:1045E0003146274801F0D0FE2020E876E97E3046AB
:1045F00000F0CBFC208FE97E40182087A06A3AE0CB
:104600001E4DBE274035687C01281FD03320FFF7A0
:1046100058FF3840411C332000F090FC1D213B2006
:1046200000F08CFC6846017A2977222000F086FC95
:1046300000210E2000F082FC00210D2000F07EFC05
:104640000120FFF73EFF40070AD00EE03320FFF7BE
:1046500038FF38400146332000F070FC1921DEE7B6
:1046600000F0AEFA0120FCF7D8F86846017A30462F
:1046700000F08BFC606D00F0BFFAFEBD80010020F1
:104680008000002070B50523FF240E4A1B0701346B
:104690000D4D03280CD00020107002461021184642
:1046A000FEF7B8FA012221462846FEF7B3FA70BD9C
:1046B00001201070024610211846FEF7ABFA0022C6
:1046C000F1E7000080010020000400507047000066
:1046D00070B505461048114E856031462846FBF7F7
:1046E00007FD044630466043281A00027110401846
:1046F0003146FBF7FDFC210244182002010E062082
:1047000000F01CFC2004010E072000F017FCE1B2B1
:10471000082000F013FC70BD80010020093D00005E
:1047200070B50D46044600F013F8002C04D0012C9F
:104730000AD12946232005E004488078002803D1C7
:104740002946322000F0FAFB70BD0000A0010020D5
:1047500010B516494A79824226D04871012810D0F6
:10476000002000F025F80120FFF7ABFE4106490EBE
:10477000012000F0E3FB0021402000F0DFFB3021AE
:104780000FE0002000F014F80120FFF79AFE8021CE
:104790000143012000F0D2FB0021402000F0CEFBBD
:1047A0000021412000F0CAFB10BD00008001002064
:1047B00010B504000FD00020FFF788FF2046FFF758
:1047C00061FF0120FFF77DFEC108C90021430120E0
:1047D00000F0B4FB10BD0120FFF778FFF1E770B5E2
:1047E0000920FFF76EFE5A20FFF76BFE0446FF21FB
:1047F000092000F0A3FB21465A2000F09FFB70BD6A
:10480000F8B5634C074660790025002802D00128DE
:1048100050D125E05E4E40202036B579FFF751FE9D
:104820008107890F40200C3100F088FB4120FFF701
:1048300048FE3E2108400146C131412000F07EFB88
:104840003520FFF73EFE8006800EB0761E210D203B
:1048500000F074FB0020307370732087E08629E03D
:104860004B4E4036707C01283DD03320FFF729FEA7
:10487000BE210840411C332000F060FB1D213B207D
:1048800000F05CFBF07BB57C012836D01F211120A5
:1048900000F054FB4020FFF714FE8106890E4020F3
:1048A00000F04CFB00210F2000F048FB00210D2000
:1048B00000F044FBFF2101313648FBF778FC012072
:1048C0002071002F08D032483946743000F040FC87
:1048D0002F48743000F04EFC6079002817D0002D6E
:1048E00052D0052051E03320FFF7EBFD4121014379
:1048F000332000F023FB1921C1E71D21112000F016
:104900001DFB4020FFF7DDFD33210140C7E70520F7
:10491000FFF74EFF002D36D11D48C069FBF70EFE94
:1049200006460F462720FFF7CCFD4007400FFBF758
:1049300005FE0022184BFBF745FC044614480D46C3
:10494000008CFBF7FBFD22462B46FBF73BFC0022CD
:10495000124BFBF737FC0322FBF7C6FD32463B4602
:10496000FBF74AFD00220E4BFBF7DEFC01F058FB83
:10497000FBF7F2FD011D0648883000F0E9FB044812
:10498000883000F0F7FBF8BD0620FFF711FFF8BDF7
:1049900080010020800000200000F03F0000244043
:1049A00000408F40FFB581B015460E4604460D9F6E
:1049B000FFF7CEFE0B997748090A0091002C1AD018
:1049C000012C74D1734C06644564403404986072C1
:1049D0000B98608127730E9860730F98A0731098DE
:1049E000E07311982074129860741398A0740C2DC1
:1049F0005ED90C255FE04661C5610A998161654910
:104A000020318F700E9ACA700F9A0A71129A4A71E9
:104A1000139A8A710B9901842846FBF78FFD024691
:104A20000B4600205C49FBF7E7FCFBF795FD84B2E1
:104A3000210A022000F082FAE1B2032000F07EFA9F
:104A40003046FBF739FF0146122000F077FA0A984A
:104A5000FBF732FF0146132000F070FA2520009981
:104A600000F06CFA0B98C1B2262000F067FA002F14
:104A700001D00E9900E0FF21322000F05FFA3020D3
:104A8000FFF71FFD6F210840002F01D0002100E03B
:104A9000802108430F9909010143302000F04EFAAC
:104AA0003120FFF70EFD40210143312062E063E039
:104AB000062D00D20625002E02D0012E02D003E0E2
:104AC0000B2D3CD00C2D3AD0002020721D20FFF77A
:104AD000F8FC0499B001C9000843B90008430F99D4
:104AE00049000843217A0843C1B21D2000F026FA8C
:104AF0001E20FFF7E6FC0C210840290108430C9911
:104B00008905890F0843C1B21E2000F017FA0C98DE
:104B1000C1B21F2000F012FA2020009900F00EFA16
:104B20000B98C1B2212000F009FA002F03D02220F7
:104B30000E9900F003FAE07B012802D00DE001207D
:104B4000C3E74B20FFF7BDFC802101434B2000F061
:104B5000F5F9217C242000F0F1F9062D0ED031204A
:104B6000FFF7AFFCC108C9003120C91C00F0E6F90D
:104B70000A21372000F0E2F905B0F0BD3120FFF73F
:104B8000A0FCC108C9003120491D00F0D7F90C2153
:104B9000EFE700008001002080847E4110B50748C7
:104BA00000F020FB0548143800F01CFB0020FFF744
:104BB000FFFD024900207439087110BDF401002086
:104BC00010B5074800F00EFB0548143800F00AFB4A
:104BD0000120FFF7EDFD024900207439087110BD76
:104BE000F401002010B504460120FFF7B1FD214675
:104BF000392000F0A3F910BD10B50146264800F099
:104C0000A7FA254C603C6079002802D001282CD1FD
:104C100019E04020FFF755FC8107890F4020103133
:104C200000F08CF94120FFF74CFC3E21014041206F
:104C300000F084F93520FFF744FC81061648890E00
:104C40004038817611E014482038C07B012815D007
:104C5000F721112000F072F94020FFF732FC8106A5
:104C6000890E4020403100F069F9022020710A4885
:104C700000F080FA0320FFF79BFD10BDF521112005
:104C800000F05CF94020FFF71CFC3321084001468E
:104C900040314020E7E70000E0010020FFB581B08F
:104CA0001E4604460C9F0A9DFFF752FD0298FFF72F
:104CB00096FD6D48390A009101462031002C1AD02A
:104CC000012C6ED1029A0A7706640446456440348A
:104CD0000B99617267810D9921730F99E173109A95
:104CE00022740E9AA273119A6274129A42650C2D64
:104CF00058D90C2559E0029A0273039A4661C5619E
:104D0000026107840D9A8A700E9A0A71119A4A718B
:104D1000129981620398FBF711FC0022534BFBF7B9
:104D20006BFBFBF719FC84B2210A042000F006F9A2
:104D3000E1B2052000F002F92846FBF7FFFB02462E
:104D40000B4600204A49FBF757FBFBF705FC84B2F2
:104D5000210A022000F0F2F8E1B2032000F0EEF8A0
:104D60002520009900F0EAF8F9B2262000F0E6F8D4
:104D70003020FFF7A6FB6F2108400D99002901D0D4
:104D8000002100E0802108430E99090101433020F1
:104D900000F0D4F83120FFF794FB4021014331208B
:104DA00052E053E0062D00D20625002E02D0012E3F
:104DB00002D003E00B2D06D00C2D04D00020207271
:104DC000012902D00DE00120F9E74B20FFF779FB24
:104DD000802101434B2000F0B1F8217C242000F019
:104DE000ADF81D20FFF76DFB0B99B001C90008431A
:104DF0000D99890008430E9949000843217A084318
:104E0000C1B21D2000F09AF81E20FFF75AFB0007E0
:104E1000000F29010843C1B21E2000F08FF82020A6
:104E2000009900F08BF8F9B2212000F087F8062DE8
:104E30000ED03120FFF745FBC108C9003120C91C45
:104E400000F07CF80A21372000F078F805B0F0BDBA
:104E50003120FFF736FBC108C9003120491D00F0A1
:104E60006DF80C21EFE700008001002080844E40A7
:104E700080847E4170B506468AB00D461046FBF729
:104E80005DFB00221D4BFBF74FFAFBF765FB044669
:104E90003046FFF71DFC0020079006900390059018
:104EA000019004904B200521800100230291009085
:104EB00008941A4629461846FFF7F0FE3120FFF7FE
:104EC00000FBBF210140312000F038F8F0214020E4
:104ED00000F034F8A021412000F030F821460848C5
:104EE00000F036F90649022060390871044800F0E4
:104EF00041F90320FFF75CFC0AB070BD00408F4011
:104F0000E001002010B50C4C6079002812D0012877
:104F100010D1FA21112000F011F84020FFF7D1FA4A
:104F20008106890E402000F009F803202071072037
:104F3000FFF73EFC10BD00008001002013B50122E8
:104F400001A900F001F81CBDF8B50446012715467B
:104F50000E46FF030520002239460007FDF75AFEE2
:104F6000204680210843FEF723F8002404E0305D4A
:104F7000FEF71EF8641CE4B2AC42F8D3052001220F
:104F800039460007FDF746FEF8BD0A4610B5014652
:104F90000020FFF7D9FF10BD10B5FCF7FBF910BDDD
:104FA00010B594B014210EA8FBF701F9382168461A
:104FB000FBF7FDF80220009001210A900391800484
:104FC0000C9000240001019410210D900B94049189
:104FD0006846FCF7F1FC002801D0FBF761FC1148A2
:104FE000816B0204114381630F4801680322D202DE
:104FF0009143C214891801604168C943C906FBD5B1
:105000000F200E9003200F90109411940121129400
:105010000EA8FCF7C1FB002801D0FBF741FC14B03F
:1050200010BD0000001002400070004010480168F0
:10503000821511430160C1680E4A1140C1600168C8
:105040000D4A11400160816849084900816001688A
:105050000122920491430160C168FD221204914330
:10506000C160002101610549C003886070470000EC
:10507000001002400C40FF88F6FFF6FE00ED00E055
:1050800000220260426002720261C160704700004B
:1050900010B5054A1168002901D000230B72016187
:1050A000106000F03FF810BD7800002070B5FDF7EB
:1050B00041FE0446FDF7CCFE031B194C2068002876
:1050C0002DD00146002507E016689E4202D9F61A47
:1050D000166000E0156009690A69002AF4D1002809
:1050E0001DD001692160C068002800D1FEE780471B
:1050F0002068002813D0FDF723FE014620680268CF
:10510000914205D901692160C0680028EFD1FEE70E
:10511000002804D0017A002901D100F003F870BD05
:105120007800002070B50446FDF702FE0546012018
:105130002072FDF705FE21684019884201D8084613
:1051400003E0FDF7FDFD40192060FDF72FFE70BD67
:1051500070B505460846FDF723FF0446284600F0D3
:1051600041F8FDF7E5FD844200D204462C606C60F6
:1051700070BD0000F8B50400EFF3108572B62CD0B6
:10518000174F3868014602E0A04226D00069002887
:10519000FAD1002660682060267200290CD0FDF745
:1051A000CFFD21680918216038680268914206D253
:1051B0002046FFF76DFF10E0FDF74AFEF8E70169B2
:1051C000002908D022680B689A4201D90846F6E700
:1051D0000461216101E00461266185F31088F8BD56
:1051E0007800002070B5EFF3108572B6144C21687A
:1051F0000A1E21D000281FD081421BD1087A002628
:105200000128086903D000280AD0206014E0002893
:1052100004D00E722060FFF785FF0DE0FDF7B0FEB1
:10522000266009E0814203D108691061002803E08B
:105230000A4609690029F5D185F3108870BD000080
:105240007800002010B5818CC90707D001684A6832
:1052500001235B049A43836A1A434A60818C89075D
:1052600007D501684A6801231B049A43C36A1A439D
:105270004A60818C490707D501684A6801239B046D
:105280009A43036B1A434A60818C090707D501686A
:105290004A680123DB039A43436B1A434A60818CBB
:1052A000C90607D50268916801231B039943836BE4
:1052B00019439160818C890607D501688A680123AA
:1052C0005B039A43C36B1A438A60818C490612D5EB
:1052D00003685A6801210905046C8A4322435A6015
:1052E000026C8A4207D10268516803235B05994327
:1052F000436C19435160818C090607D501684A68DF
:105300000123DB04806C9A4302434A6010BD000015
:10531000F8B500260446C666FBF7EEFD0546206894
:105320000068124F000709D501212B4600224905CC
:105330002046009700F08CF900280DD12068006805
:1053400040070BD501212B460022890520460097F6
:1053500000F07EF9002801D00320F8BD2020603441
:105360006072A07226720020F8BD0000FFFFFF01EE
:1053700070B5846A25466035687A0026212808D1F0
:1053800020688068000604D552200653204600F0AD
:1053900048F8A87A222808D120688068400604D5F9
:1053A0005A200653204600F02DF8E06E10210843E5
:1053B000E0662046FDF715FA70BD10B50146096894
:1053C000806A0968890615D400225A210A520168A8
:1053D0000A68FF2301339A430A6001688A68520809
:1053E00052008A6001688A6840239A438A602022BA
:1053F0006A210A54FDF7C2FA10BD10B5806AFDF7A4
:1054000037FB10BD01680A68FF2321339A430A6005
:1054100001688A68520852008A60202160308172D7
:10542000704701680A68C0239A430A6020216030EF
:1054300041727047FEB50446016880682269E369DD
:1054400010436269102700261A4310430A68354644
:10545000754B1A4002430A60206841680322120318
:105460009143E26811434160704A2168A06991420A
:1054700001D0226A10438A680B231B029A4302431D
:105480008A606B4A21686B4891420CD1C0688007E2
:10549000800F06D001283DD0022839D0032820D122
:1054A0001EE001271DE0644A91420AD1C0680C2128
:1054B00008402BD004282DD0082829D00C2810D142
:1054C0000EE05A4A91420CD1C1680320800201408B
:1054D0001CD01015091A1DD0091A19D0814200D10B
:1054E00008270220FBF7BAFF0190504B5149226870
:1054F0004039D81300929A4235D1002F0CD0022F98
:105500000DD0042F12D0082F1CD113E00027E8E79C
:105510000227E6E70427E4E7FCF7F2F908E0086869
:10552000C00601D5454805E0454803E0FCF708FA08
:10553000002873D0626851005118814202D81103CB
:10554000814201D2012569E0010E060250080023C4
:1055500030185941FAF7E2FD03210902394A411A8C
:10556000914259D9EEE7E26982422DD13B0000F029
:10557000DEF80906080B24192424241F24000198AE
:1055800012E0FCF7CDF90FE008686168C00602D5AB
:1055900048082D4A01E02D4A48088018FAF7A8FD6E
:1055A00086B20BE0FCF7CCF9616840004A08F4E7EA
:1055B0006168012248081204EFE701253109090159
:1055C0003007400F084327E03B0000F0B0F8090720
:1055D0000A0D061D060606290600B3E7FCF790F93A
:1055E00014E0FCF79DF911E008686168C00602D577
:1055F0004A08124801E012484A081018FAF778FDE4
:1056000081B20098C16009E0FCF79AF961684A0824
:105610008018FAF76DFD80B22168C8602846FEBD8B
:1056200061684A08E9E70000F369FFEF00480040BD
:1056300000380140401002400044004000093D0095
:105640000024F400FFFC0F0000127A000048E8017B
:10565000FFB581B017460E4604460A9D1DE0681C42
:105660001BD0002D05D0FBF747FC0499401AA84237
:1056700013D920680168FF22A1329143016020689C
:105680008168490849008160202060346072A072FE
:1056900000202072032005B0F0BD2068C1693046AB
:1056A000884304D00020B842D9D00020F3E701207D
:1056B000F9E710B500F0C2FE10BD00000FB410B540
:1056C00003A9044B044A029800F008F910BC08BC76
:1056D00004B01847B16100087C00002037B51446BB
:1056E0000846064B6A46214600F0F8F8044669462B
:1056F000002000F08FFC20463EBD00001560000831
:105700002021020C01D010211046020A01D01046BF
:105710000839020901D01046091F820801D010463D
:10572000891E420801D0881E7047081A704730B49D
:105730007446641E2578641CAB4200D21D46635D2E
:105740005B00E31830BC184702E008C8121F08C10C
:10575000002AFAD170477047002001E001C1121FF2
:10576000002AFBD170470000F0B51FB486B009983D
:10577000089A030D0021024314D05148514A1818C9
:10578000504305141198012810981AD0281A401C6B
:1057900000264D4F4D49009601910490002812DAE1
:1057A000444211E01198012449A3012801D1109825
:1057B000C1430698119A84600360C26041600BB0D7
:1057C000F0BD4042E4E70446210500203F4A001CAA
:1057D00051410391029012E0E00707D032463B4668
:1057E00001990098FAF7A0FD0191009032463B46DE
:1057F00010461946FAF798FD06460F466410002C2D
:10580000EAD10498039B0028029A0999089806DABD
:10581000FAF78AFD019B009AFAF786FD05E0FAF790
:10582000EBFD019B009AFAF7E7FD04460E460022C5
:10583000284BFAF7AFFE03D80020C043014607E02B
:105840000022254B20463146FAF7BCFCFAF788FFC8
:10585000102409E0002C0ADB0A220023FAF75EFC80
:10586000079B30321A55641E02460A43F2D11122B8
:10587000641C079B121B1C19119B012B03D00123D5
:1058800008430ED10AE0084304D0112010900020F4
:10589000119077E71098151A6D1E0BE01098824250
:1058A00002DD00236D1C03E0824201DA00236D1E3D
:1058B000002BEED0069811998260C16030C07EE75F
:1058C00001FCFFFF104D0000000014400000F03FFD
:1058D000300000000000F0430000E03FFFB597B04B
:1058E0000646002518E2252877D100242746FD49E1
:1058F000049400E00443761C32780120203A904062
:105900000842F7D130782A280ED00222307801469A
:105910003039092916D804990A23594330394018D7
:105920001443761C0490F1E7189802C8049118906B
:10593000002904DA01204003044348420490022075
:105940000443761C30782E2814D104200443707848
:10595000761C2A2809D11898761C80C8189009E06E
:105960000A214F43303FC719761C30780146303941
:105970000929F5D930786C2810D006DC4C281AD0CB
:1059800068280ED06A2817D104E0742813D07A282A
:1059900012D110E00120400504430CE0012109056B
:1059A00001E0032109050C437178814203D10120F4
:1059B00000052418761C761C3078119066280BD0D0
:1059C00013DC58287DD009DC00287BD04528F6D090
:1059D0004628F4D047281AD1A5E118E0632835D02D
:1059E000642870D0652812D19DE170286CD008DC45
:1059F0006728F1D069287BD06E280DD06F2806D19A
:105A0000BAE073282ED0752871D0782859D01A9A08
:105A1000199990476D1C7EE16002400F022809D061
:105A200003280DD00428189801680DD00D60001DC2
:105A3000189070E11898EA1701680D604A60F6E75F
:105A4000189801680D80F2E70D70F0E718986A4623
:105A500001781172001D18900020507202A8009069
:105A6000012005E0189802C8189000200091C0435A
:105A700061070DD5002101E00199491C0191B9424E
:105A800012DA8142F8DB009A515C0029F4D10BE074
:105A9000002101E00199491C01918142FADB019A40
:105AA0000099895C0029F5D1019904981A9B471A3D
:105AB00021463846199A00F097FA0199401945187D
:105AC0000BE04FE02CE113E04EE0009800990078E5
:105AD000491C00911A9A199990470198401E01900B
